:020000040800F2
:1000000000000120A533000800000000B7520008DE
:1000100000000000C7520008D7520008000000008E
:10002000000000000000000000000000ED3D00089E
:100030000000000000000000053E0008E952000832
:1000400000000000000000000000000000000000B0
:1000500000000000000000002D4A0008594A000876
:100060000000000000000000000000000000000090
:100070000000000000000000000000000000000080
:100080000000000000000000000000000000000070
:10009000000000000000000000000000854A000889
:1000A0000000000000000000000000000000000050
:1000B000000000000000000000000000254E0008C5
:1000C000614F0008000000000000000069360008D1
:1000D00000000000C9460008894700085D48000884
:1000E000F14A0008000000000000000000000000CD
:1000F0000000000000000000DD3B000800000000E0
:1001000000000000000000000000000000000000EF
:1001100000000000000000000000000000000000DF
:100120000000000000000000C944000800000000BA
:100130004FF0FF0C1CEAD0521EBF1CEAD15392EACA
:100140000C0F93EA0C0F6FD01A4480EA010C4002A6
:1001500018BF5FEA41211ED04FF0006343EA501000
:1001600043EA5111A0FB01310CF00040B1F5000F42
:100170003EBF490041EAD3715B0040EA010062F1F1
:100180007F02FD2A1DD8B3F1004F40EBC25008BFDB
:1001900020F00100704790F0000F0CF0004C08BFF9
:1001A00049024CEA502040EA51207F3AC2BFD2F1C6
:1001B000FF0340EAC250704740F400004FF00003D4
:1001C000013A5DDC12F1190FDCBF00F0004070470E
:1001D000C2F10002410021FA02F1C2F1200200FA4C
:1001E00002FC5FEA310040F1000053EA4C0308BF13
:1001F00020EADC70704792F0000F00F0004C02BF64
:10020000400010F4000F013AF9D040EA0C0093F0DE
:10021000000F01F0004C02BF490011F4000F013B38
:10022000F9D041EA0C018FE70CEAD15392EA0C0FA6
:1002300018BF93EA0C0F0AD030F0004C18BF31F011
:10024000004CD8D180EA010000F00040704790F0E7
:10025000000F17BF90F0004F084691F0000F91F08B
:10026000004F14D092EA0C0F01D142020FD193EA51
:100270000C0F03D14B0218BF084608D180EA0100D9
:1002800000F0004040F0FE4040F40000704740F0B5
:10029000FE4040F44000704781F0004102E000BFA2
:1002A00083F0004330B54FEA41044FEA430594EA36
:1002B000050F08BF90EA020F1FBF54EA000C55EA71
:1002C000020C7FEA645C7FEA655C00F0E2804FEA42
:1002D0005454D4EB5555B8BF6D420CDD2C4480EA24
:1002E000020281EA030382EA000083EA010180EA54
:1002F000020281EA0303362D88BF30BD11F0004FA2
:100300004FEA01314FF4801C4CEA113102D04042D7
:1003100061EB410113F0004F4FEA03334CEA133312
:1003200002D0524263EB430394EA050F00F0A7802A
:10033000A4F10104D5F1200E0DDB02FA0EFC22FA25
:1003400005F2801841F1000103FA0EF2801843FA19
:1003500005F359410EE0A5F120050EF1200E012A0A
:1003600003FA0EFC28BF4CF0020C43FA05F3C01848
:1003700051EBE37101F0004507D54FF0000EDCF1C1
:10038000000C7EEB00006EEB0101B1F5801F1BD36A
:10039000B1F5001F0CD349085FEA30004FEA3C0C6E
:1003A00004F101044FEA445212F5800F80F09A8064
:1003B000BCF1004F08BF5FEA500C50F1000041EB68
:1003C000045141EA050130BD5FEA4C0C404141EB6C
:1003D0000101013C28BFB1F5801FE9D291F0000F67
:1003E00004BF01460020B1FA81F308BF2033A3F116
:1003F0000B03B3F120020CDA0C3208DD02F1140C0D
:10040000C2F10C0201FA0CF021FA02F10CE002F147
:100410001402D8BFC2F1200C01FA02F120FA0CFC40
:10042000DCBF41EA0C019040E41AA2BF01EB045189
:10043000294330BD6FEA04041F3C1CDA0C340EDC87
:1004400004F11404C4F1200220FA04F001FA02F3CA
:1004500040EA030021FA04F345EA030130BDC4F188
:100460000C04C4F1200220FA02F001FA04F340EA7D
:100470000300294630BD21FA04F0294630BD94F02E
:10048000000F83F4801306BF81F480110134013D15
:100490004EE77FEA645C18BF7FEA655C29D094EA86
:1004A000050F08BF90EA020F05D054EA000C04BF04
:1004B0001946104630BD91EA030F1EBF00210020EF
:1004C00030BD5FEA545C05D14000494128BF41F08E
:1004D000004130BD14F580043CBF01F5801130BDF2
:1004E00001F0004545F0FE4141F470014FF000007D
:1004F00030BD7FEA645C1ABF194610467FEA655C2E
:100500001CBF0B46024650EA013406BF52EA0335CF
:1005100091EA030F41F4002130BD00BF90F0000FBD
:1005200004BF0021704730B54FF4806404F13204F9
:100530004FF000054FF0000150E700BF90F0000FB2
:1005400004BF0021704730B54FF4806404F13204D9
:1005500010F0004548BF40424FF000013EE700BFA9
:1005600042004FEAE2014FEA31014FEA02701FBF39
:1005700012F07F4393F07F4F81F06051704732F06B
:100580007F4208BF704793F07F4F04BF41F40021C2
:10059000704730B54FF4607401F0004521F0004120
:1005A0001CE700BF50EA010208BF704730B54FF0AA
:1005B00000050AE050EA010208BF704730B511F0AB
:1005C000004502D5404261EB41014FF4806404F1E3
:1005D00032045FEA915C3FF4D8AE4FF003025FEA69
:1005E000DC0C18BF03325FEADC0C18BF033202EBED
:1005F000DC02C2F1200300FA03FC20FA02F001FA47
:1006000003FE40EA0E0021FA02F11444BDE600BFE9
:1006100070B54FF0FF0C4CF4E06C1CEA11541DBF98
:100620001CEA135594EA0C0F95EA0C0F00F0DEF863
:100630002C4481EA030621EA4C5123EA4C5350EA48
:10064000013518BF52EA033541F4801143F4801399
:1006500038D0A0FB02CE4FF00005E1FB02E506F02A
:100660000042E0FB03E54FF00006E1FB03569CF07F
:10067000000F18BF4EF0010EA4F1FF04B6F5007F85
:1006800064F5407404D25FEA4E0E6D4146EB0606F7
:1006900042EAC62141EA55514FEAC52040EA5E5080
:1006A0004FEACE2EB4F1FD0C88BFBCF5E06F1ED82A
:1006B000BEF1004F08BF5FEA500E50F1000041EB61
:1006C000045170BD06F0004646EA010140EA02000E
:1006D00081EA0301B4EB5C04C2BFD4EB0C0541EA30
:1006E000045170BD41F480114FF0000E013C00F345
:1006F000AB8014F1360FDEBF002001F0004170BD69
:10070000C4F10004203C35DA0C341BDC04F1140481
:10071000C4F1200500FA05F320FA04F001FA05F20D
:1007200040EA020001F0004221F0004110EBD370DA
:1007300021FA04F642EB06015EEA430E08BF20EA06
:10074000D37070BDC4F10C04C4F1200500FA04F3A9
:1007500020FA05F001FA04F240EA020001F000413B
:1007600010EBD37041F100015EEA430E08BF20EAAE
:10077000D37070BDC4F1200500FA05F24EEA020EF6
:1007800020FA04F301FA05F243EA020321FA04F025
:1007900001F0004121FA04F220EA020000EBD370DC
:1007A0005EEA430E08BF20EAD37070BD94F0000FDC
:1007B0000FD101F00046400041EB010111F4801F10
:1007C00008BF013CF7D041EA060195F0000F18BFC1
:1007D000704703F00046520043EB030313F4801FFD
:1007E00008BF013DF7D043EA0603704794EA0C0FB7
:1007F0000CEA135518BF95EA0C0F0CD050EA4106CD
:1008000018BF52EA4306D1D181EA030101F0004149
:100810004FF0000070BD50EA410606BF1046194671
:1008200052EA430619D094EA0C0F02D150EA01367D
:1008300013D195EA0C0F05D152EA03361CBF1046BE
:1008400019460AD181EA030101F0004141F0FE415D
:1008500041F470014FF0000070BD41F0FE4141F4E1
:10086000780170BD70B54FF0FF0C4CF4E06C1CEAE1
:1008700011541DBF1CEA135594EA0C0F95EA0C0F96
:1008800000F0A7F8A4EB050481EA030E52EA033551
:100890004FEA013100F088804FEA03334FF0805572
:1008A00045EA131343EA12634FEA022245EA11159F
:1008B00045EA10654FEA00260EF000419D4208BF50
:1008C000964244F1FD0404F5407402D25B084FEAFD
:1008D0003202B61A65EB03055B084FEA32024FF4A9
:1008E00080104FF4002CB6EB020E75EB030E22BF06
:1008F000B61A754640EA0C005B084FEA3202B6EBC6
:10090000020E75EB030E22BFB61A754640EA5C0074
:100910005B084FEA3202B6EB020E75EB030E22BF04
:10092000B61A754640EA9C005B084FEA3202B6EB05
:10093000020E75EB030E22BFB61A754640EADC00C4
:1009400055EA060E18D04FEA051545EA16754FEA26
:1009500006164FEAC30343EA52734FEAC2025FEA44
:100960001C1CC0D111F4801F0BD141EA00014FF0D3
:1009700000004FF0004CB6E711F4801F04BF0143A4
:100980000020B4F1FD0C88BFBCF5E06F3FF6AFAEC0
:10099000B5EB030C04BFB6EB020C5FEA500C50F150
:1009A000000041EB045170BD0EF0004E4EEA1131D3
:1009B00014EB5C04C2BFD4EB0C0541EA045170BDDA
:1009C00041F480114FF0000E013C90E645EA060E1E
:1009D0008DE60CEA135594EA0C0F08BF95EA0C0F4C
:1009E0003FF43BAF94EA0C0F0AD150EA01347FF494
:1009F00034AF95EA0C0F7FF425AF104619462CE76B
:100A000095EA0C0F06D152EA03353FF4FDAE1046CD
:100A1000194622E750EA410618BF52EA43067FF41E
:100A2000C5AE50EA41047FF40DAF52EA43057FF4AE
:100A3000EBAE12E74FF0FF3C06E000BF4FF0010CB9
:100A400002E000BF4FF0010C4DF804CD4FEA410C1D
:100A50007FEA6C5C4FEA430C18BF7FEA6C5C1BD0EA
:100A600001B050EA410C0CBF52EA430C91EA030F6B
:100A700002BF90EA020F0020704710F1000F91EAC8
:100A8000030F58BF994208BF90422CBFD8176FEA96
:100A9000E37040F0010070474FEA410C7FEA6C5C64
:100AA00002D150EA013C07D14FEA430C7FEA6C5C6B
:100AB000D6D152EA033CD3D05DF8040B704700BF97
:100AC0008446104662468C461946634600E000BFE5
:100AD00001B5FFF7B7FF002848BF10F1000F01BDB7
:100AE0004DF808EDFFF7F4FF0CBF012000205DF882
:100AF00008FB00BF4DF808EDFFF7EAFF34BF012007
:100B000000205DF808FB00BF4DF808EDFFF7E0FF9F
:100B100094BF012000205DF808FB00BF4DF808EDF0
:100B2000FFF7CEFF94BF012000205DF808FB00BF57
:100B30004DF808EDFFF7C4FF34BF012000205DF839
:100B400008FB00BF4FEA410212F5001215D211D581
:100B50006FF47873B3EB625212D94FEAC12343F0BA
:100B6000004343EA505311F0004F23FA02F018BF3C
:100B7000404270474FF00000704750EA013005D105
:100B800011F0004008BF6FF0004070474FF00000C8
:100B9000704700BF4FEA4102B2F1E04324BFB3F512
:100BA000001CDCF1FE5C0DD901F0004C4FEAC002E4
:100BB0004CEA5070B2F1004F40EB830008BF20F0C8
:100BC0000100704711F0804F21D113F13872BCBF82
:100BD00001F00040704741F480114FEA5252C2F1D7
:100BE0001802C2F1200C10FA0CF320FA02F018BF20
:100BF00040F001004FEAC1234FEAD32303FA0CFC73
:100C000040EA0C0023FA02F34FEA4303CCE77FEA01
:100C1000625307D150EA01331EBF4FF0FE4040F44B
:100C20004000704701F0004040F0FE4040F40000FA
:100C3000704700BF42000ED2B2F1FE4F0BD34FF00F
:100C40009E03B3EB126209D44FEA002343F0004342
:100C500023FA02F070474FF00000704712F1610F65
:100C600001D1420202D14FF0FF3070474FF0000037
:100C7000704700BF00B583B003468DF807309DF87C
:100C800007300A21184602F07FF800BF03B05DF874
:100C900004FB00B583B00190009101F0E1FF034631
:100CA000002B12D001F0D4FF0346002B06D0019B8D
:100CB00001221A70009B00221A700CE0019B002296
:100CC0001A70009B01221A7005E0019B00221A7025
:100CD000009B00221A7000BF03B05DF804FB000007
:100CE000064B5A790132D2B25A71044B5B79092B07
:100CF00002D9024B00225A7100BF704768030020DE
:100D000082B0019001994FF000024FF00003C1E959
:100D1000002300BF02B0704700B585B0CDE90201E5
:100D200001920093009B1B78002B0CD1009B0122A9
:100D30001A70069BD3E900230199C1E90023009BA7
:100D400001225A7039E0009B5B78012B26D14FF0CD
:100D500000024FF00003DDE90201FFF7C1FE034688
:100D6000002B00D029E0019BD3E900014FF00002E5
:100D70004FF00003FFF7B4FE0346002B03D04FF003
:100D80000002104B03E04FF000024FF00003019906
:100D9000C1E90023009B02225A700EE04FF00002CE
:100DA0004FF00003DDE90201FFF79AFE0346002B36
:100DB00000D102E0009B01225A7000BF05B05DF82F
:100DC00004FB00BF0000F03F30B585B0CDE9000165
:100DD000009C019B23F000454FF00002294B204668
:100DE0002946FFF787FE0346002B40D04FF0000254
:100DF000254BDDE90001FFF791FE0346002B0FD0E4
:100E00004FF00002204BDDE90001FFF74BFA0246EC
:100E10000B461046194604F003FDCDE902012AE015
:100E20004FF00002194BDDE90001FFF781FE034698
:100E3000002B0CD04FF000024FF00003DDE9000161
:100E4000FFF7E6FB02460B46CDE9022313E04FF025
:100E500000020D4BDDE90001FFF722FA02460B46C6
:100E60001046194604F05CFCCDE9020103E0DDE91F
:100E70000023CDE90223DDE902231046194605B01F
:100E800030BD00BF000030430000E03F0000E0BF85
:100E90002DE9F04F9FB004220721012001F024FF2B
:100EA00003461846FFF73AFB02460B46A149C1E943
:100EB000082308220721012001F016FF03461846E7
:100EC000FFF72CFB02460B46CDE91A23022207212D
:100ED000012001F009FF03461846FFF71FFB0246F9
:100EE0000B46CDE9162301220721012001F0FCFE6B
:100EF00003461846FFF712FB02460B46CDE91C23BA
:100F0000DDE9160101F0D8FC03468DF84230DDE939
:100F10001623DDE91A01FFF701FE0346002B03D17A
:100F20009DF84230002B04D0DDE91A23CDE91223CD
:100F300003E0DDE91623CDE91223DDE91C0101F010
:100F4000BBFC0346002B0CBF01230023DBB28DF852
:100F5000403001231C46DDE91C23DDE91201FFF7C7
:100F6000DDFD0346002B01D100231C46E3B283F0D4
:100F70000103DBB2002B07D09DF84030002B03D0DB
:100F8000DDE91C23CDE912236A4BD3E908014FF0B8
:100F900000024FF00003FFF7A3FD0346002B01D131
:100FA000022400E0002401231D464FF000024FF010
:100FB0000003DDE91201FFF793FD0346002B01D08A
:100FC00000231D46EBB223445A005B4B93F850308C
:100FD0001A445A4B134493F88032574A82F85030DF
:100FE000544BD3E90823DDE91601FFF78DFD0346D5
:100FF000002B03D19DF84230002B05D04D4BD3E997
:101000000823CDE9122303E0DDE91623CDE91223FD
:1010100001231C46DDE91C23DDE91201FFF77EFDFB
:101020000346002B01D100231C46E3B283F00103E9
:10103000DBB2002B07D09DF84030002B03D0DDE958
:101040001C23CDE912234FF000024FF00003DDE92D
:101050001A01FFF745FD0346002B01D1022400E0F1
:10106000002401231D464FF000024FF00003DDE98C
:101070001201FFF735FD0346002B01D000231D466A
:10108000EBB223445A002C4B93F851301A442B4BAB
:10109000134493F89032284A82F85130254BD3E913
:1010A0000823DDE91A01FFF72FFD0346002B06D1C7
:1010B000DDE91A0101F000FC0346002B01D00123F9
:1010C00000E000238DF841309DF84130002B05D021
:1010D000184BD3E90823CDE9122303E0DDE91A23F5
:1010E000CDE9122301231C46DDE91C23DDE91201B1
:1010F000FFF714FD0346002B01D100231C46E3B289
:1011000083F00103DBB2002B07D09DF84030002BA9
:1011100003D0DDE91C23CDE912234FF000024FF08C
:101120000003DDE91601FFF7DBFC0346002B07D1C6
:10113000022406E0E002002010030020000000204E
:10114000002401231D464FF000024FF00003DDE9AB
:101150001201FFF7C5FC0346002B01D000231D46FA
:10116000EBB223445A00964B93F852301A44954BF5
:10117000134493F8A032924A82F852309DF84130DD
:10118000002B04D0904BD3E90823CDE91A23DDE9E5
:101190001623DDE91A01FFF7C1FC0346002B03D13A
:1011A0009DF84230002B03D0DDE91A23CDE9162348
:1011B0004FF000024FF00003DDE91C01FFF790FC47
:1011C0000346002B01D1022400E0002401231D4628
:1011D0004FF000024FF00003DDE91601FFF780FC3D
:1011E0000346002B01D000231D46EBB223445A00D6
:1011F000734B93F853301A44724B134493F8B03244
:101200006F4A82F853306E4B93F85030002B05D064
:101210006C4BD3E93C23CDE91A2304E0694BD3E9B5
:101220005223CDE91A23664B93F85130002B05D099
:10123000644BD3E93423CDE9162304E0614BD3E9B1
:101240005223CDE916235E4B93F85230002B05D084
:101250005C4BD3E93623CDE91C2304E0594BD3E999
:101260005223CDE91C23564B93F85330002B06D064
:10127000544BD3E938235449C1E9082305E0514BC5
:10128000D3E952235049C1E90823DDE91623DDE9FA
:101290001A01FFF743FC0346002B06D1DDE91601D6
:1012A00001F00AFB0346002B03D0DDE91A23CDE948
:1012B0001623DDE91C23DDE91601FFF72FFC0346A9
:1012C000002B06D1DDE91C0101F0F6FA0346002BE4
:1012D00003D0DDE91623CDE91C233B4BD3E90823DA
:1012E000DDE91C01FFF71AFC0346002B09D1364B40
:1012F000D3E908231046194601F0DEFA0346002B15
:1013000004D03149DDE91C23C1E908232E4BD3E980
:1013100008012C4BD3E954230124FFF709FC0346B1
:10132000002B01D100231C46E3B283F00103DBB2A2
:10133000002B05D0234BD3E93A232349C1E90823E5
:10134000214BD3E9082310461946FFF7FBFB034660
:10135000032B14D0032B19DC012B02D0022B07D056
:1013600014E04FF000024FF00003CDE91A2313E020
:101370004FF000024FF00003CDE91A230CE04FF0CC
:1013800000024FF00003CDE91A2305E00D4BD3E92D
:101390005623CDE91A2300BF07A3D3E90023DDE9D3
:1013A0001A01FFF7C5FB0346002B0FD002A3D3E9B8
:1013B0000023CDE91A2318E00000000000C05F40C0
:1013C0001003002000000020E00200204FF0000287
:1013D000A14BDDE91A01FFF78DFB0346002B04D07A
:1013E0004FF000029C4BCDE91A23DDE91A01FFF70B
:1013F000EBFC02460B469949C1E90A23974BD3E916
:101400000A014FF00002964BFFF774FB0346002BD6
:1014100009D0924BD3E90A2310461946FFF792FBF5
:101420000346119302E06FF00043119311990820D5
:1014300001F092FC894BD3E9082310461946FFF7C7
:1014400081FB0346032B14D0032B19DC012B02D0A4
:10145000022B07D014E04FF000024FF00003CDE95B
:101460001A2313E04FF000024FF00003CDE91A23D6
:101470000CE04FF000024FF00003CDE91A2305E025
:10148000784BD3E95623CDE91A2300BF70A3D3E9E3
:101490000023DDE91A01FFF74BFB0346002B05D0C3
:1014A0006BA3D3E90023CDE91A230EE04FF000022D
:1014B000694BDDE91A01FFF71DFB0346002B04D041
:1014C0004FF00002644BCDE91A23DDE91A01FFF762
:1014D0007BFC02460B466149C1E90A235F4BD3E915
:1014E0000A014FF000025E4BFFF704FB0346002B9E
:1014F00009D05A4BD3E90A2310461946FFF722FBBD
:101500000346119302E06FF00043119311990920F3
:1015100001F022FC04220521012001F0E5FB034635
:101520001846FEF7FBFF02460B46CDE91A230122BF
:101530000521012001F0D8FB03461846FEF7EEFF17
:1015400002460B46CDE91623444BD3E90823104647
:101550001946FFF7F7FA0346032B72D0032B00F36B
:101560008380012B02D0022B64D07DE03D4BD3E978
:101570001023DDE91601FFF7DBFA0346002B0CD040
:10158000384BD3E90E01374BD3E90C23FFF740F872
:1015900002460B46CDE9162304E0324BD3E95C2327
:1015A000CDE916232F4BD3E91223DDE91A01FFF70A
:1015B000BFFA0346002B05D02A4BD3E90A23CDE915
:1015C0001A2304E0274BD3E95C23CDE91A23DDE994
:1015D0001623DDE91A01FFF7A1FA0346002B06D115
:1015E000DDE9160101F068F90346002B03D0DDE9BF
:1015F0001A23CDE91623169E179B23F00047194B9B
:10160000D3E9142330463946FFF792FA0346002BFC
:1016100004D0144BD3E95823CDE91623114BD3E959
:101620001623DDE91601FEF7F3FF02460B46CDE96E
:101630001A231FE04FF000024FF00003CDE91A23F8
:1016400018E04FF000024FF00003CDE91A2311E03B
:101650000000000000C05F40000060C0E002002009
:101660000000E041000000209B4BD3E95623CDE968
:101670001A2300BF994BD3E90601974BD3E93E23C8
:10168000FFF72EFA0346002B0CD1944B1B69012B5C
:1016900002D1924A012313758F4BD3E93E238F4920
:1016A000C1E906238D4B1B7D002B02D08B4A002302
:1016B000137587A3D3E90023DDE91A01FFF738FA90
:1016C0000346002B05D082A3D3E90023CDE91A23DA
:1016D0000EE04FF00002824BDDE91A01FFF70AFA33
:1016E0000346002B04D04FF000027D4BCDE91A23B6
:1016F000DDE91A01FFF768FB02460B467949C1E9AB
:101700000A23784BD3E90A014FF00002764BFFF72A
:10171000F1F90346002B09D0724BD3E90A23104696
:101720001946FFF70FFA0346119302E06FF00043EA
:1017300011931199042001F00FFB042206210120CE
:1017400001F0D2FA03461846FEF7E8FE02460B46C1
:10175000CDE91A2301220621012001F0C5FA034632
:101760001846FEF7DBFE02460B46CDE916235D4B1D
:10177000D3E9082310461946FFF7E4F90346032B83
:1017800069D0032B6EDC012B02D0022B5CD069E008
:10179000514BD3E91E23DDE91601FFF7C9F90346D2
:1017A000002B0CD04C4BD3E91C014B4BD3E91A2333
:1017B000FEF72EFF02460B46CDE9162304E0464B0A
:1017C000D3E95C23CDE91623434BD3E92023DDE99C
:1017D0001A01FFF7ADF90346002B05D03E4BD3E9C4
:1017E0001823CDE91A2304E03B4BD3E95C23CDE970
:1017F0001A23DDE91623DDE91A01FFF78FF9034605
:10180000002B06D1DDE9160101F056F80346002B46
:1018100003D0DDE91A23CDE91623169B0293179B0B
:1018200023F0004303932C4BD3E92223DDE902018B
:10183000FFF77EF90346002B00D119E0264BD3E9D0
:101840005823CDE9162313E04FF000024FF00003B8
:10185000CDE916230CE04FF000024FF00003CDE974
:10186000162305E01C4BD3E95623CDE9162300BF10
:101870001A4BD3E90201184BD3E94023FFF730F9A3
:101880000346002B0CD1154B1B68012B02D1134AC8
:1018900001231371104BD3E940231049C1E90223FE
:1018A0000E4B1B79002B02D00C4A0023137108A3A6
:1018B000D3E90023DDE91601FFF73AF90346002BCF
:1018C00014D003A3D3E90023CDE916231DE000BF04
:1018D0000000000000C05F40000000201003002056
:1018E000000060C0E00200200000E0414FF0000274
:1018F000954BDDE91601FFF7FDF80346002B04D0F8
:101900004FF00002904BCDE91623DDE91601FFF7F9
:101910005BFA02460B468D49C1E90A238B4BD3E99A
:101920000A014FF000028A4BFFF7E4F80346002B50
:1019300009D0864BD3E90A2310461946FFF702F96E
:101940000346119302E06FF00043119311990520B3
:1019500001F002FA01220821012001F0C5F9034635
:101960001846FEF7DBFD02460B46CDE91A2304229A
:101970000821012001F0B8F903461846FEF7CEFD14
:1019800002460B46CDE91623724BD3E96823DDE905
:101990001A01FFF7CDF80346002B05D06D4BD3E9B4
:1019A0003023CDE91A2304E06A4BD3E96623CDE95D
:1019B0001A23684BD3E96C23DDE91601FFF7B8F869
:1019C0000346002B06D0634BD3E932235F49C1E9BC
:1019D0000A2305E05F4BD3E966235C49C1E90A238A
:1019E0005A4BD3E90A23DDE91A01FFF797F80346BA
:1019F000002B09D1554BD3E90A231046194600F0B4
:101A00005BFF0346002B04D05049DDE91A23C1E9EE
:101A10000A234E4BD3E90A23049223F00043059393
:101A20004C4BD3E96E23DDE90401FFF781F803464F
:101A3000002B05D0474BD3E92E234449C1E90A23A3
:101A4000424BD3E90A23069223F000430793414B0C
:101A5000D3E97223DDE90601FFF76AF80346002B9C
:101A600005D03A4BD3E90A233B49C1E91023374B50
:101A7000D3E9082310461946FFF764F80346032B01
:101A800013D0032B18DC012B02D0022B06D013E05D
:101A9000314BD3E91023CDE91A2313E04FF00002B4
:101AA0004FF00003CDE91A230CE04FF000024FF095
:101AB0000003CDE91A2305E0264BD3E95623CDE9EF
:101AC0001A2300BF1EA3D3E90023DDE91A01FFF7A3
:101AD0002FF80346002B05D019A3D3E90023CDE945
:101AE0001A230EE04FF00002174BDDE91A01FFF751
:101AF00001F80346002B04D04FF00002124BCDE951
:101B00001A23DDE91A01FFF75FF902460B460F4978
:101B1000C1E90A230D4BD3E90A014FF000020C4B37
:101B2000FEF7E8FF0346002B18D0084BD3E90A2341
:101B300010461946FFF706F80346119311E000BF5F
:101B40000000000000C05F40000060C0E002002014
:101B50000000E04100000020100300206FF000436F
:101B600011931199062001F0F7F8A94BD3E9082346
:101B700010461946FEF7E6FF0346032B14D0032B4D
:101B800019DC012B02D0022B07D014E04FF0000229
:101B90004FF00003CDE91A2313E04FF000024FF09D
:101BA0000003CDE91A230CE04FF000024FF00003D0
:101BB000CDE91A2305E0974BD3E95623CDE91A2343
:101BC00000BF91A3D3E90023DDE91A01FEF7B0FFBE
:101BD0000346002B05D08CA3D3E90023CDE91A23BB
:101BE0000EE04FF000028C4BDDE91A01FEF782FF98
:101BF0000346002B04D04FF00002874BCDE91A2397
:101C0000DDE91A01FFF7E0F802460B468049C1E919
:101C10000A237F4BD3E90A014FF000027F4BFEF706
:101C200069FF0346002B09D0794BD3E90A231046FC
:101C30001946FEF787FF0346119302E06FF0004359
:101C400011931199072001F087F8754B5B79002BF0
:101C500040F08A82012000F0CFFF03461846FEF7CD
:101C60005DFC02460B46CDE91A23022000F0C4FFBA
:101C700003461846FEF752FC02460B46CDE91623F2
:101C8000032000F0B9FF03461846FEF747FC024662
:101C90000B46CDE91C23DDE91623DDE91A01FEF729
:101CA00001FB02460B46DDE91C01FEF7FBFA02468A
:101CB0000B46CDE91823574BD3E98423DDE91801FE
:101CC000FEF736FF0346002B05D0524B93F8C03287
:101CD0008DF8423004E04F4B93F8C1328DF842301A
:101CE0004C4BD3E98623DDE91801FEF717FF0346C5
:101CF000002B05D0474B93F8C0328DF8403004E0FC
:101D0000444B93F8C1328DF84030424BD3E97A010D
:101D1000404BD3E98823FEF70BFF0346002B05D089
:101D20003C4B93F8C2328DF8413004E0394B93F8C4
:101D3000C3328DF84130374BD3E97A01354BD3E9C3
:101D40008A23FEF7EBFE0346002B05D0314B93F8B8
:101D5000C2328DF8433004E02E4B93F8C3328DF835
:101D600043309DF84230002B18D19DF84030002BB5
:101D700014D09DF84130002B10D19DF84330002B3A
:101D80000CD0284BD3E91201224BD3E90223FEF7F2
:101D900089FA02460B46CDE9182304E01D4BD3E92E
:101DA0000423CDE918231A494FF000024FF0000335
:101DB000C1E906234FF000024FF00003CDE91423E0
:101DC000144BD3E97A014FF000024FF00003FEF705
:101DD00087FE0346002B00F0C7814FF00002124B34
:101DE000DDE91C01FEF77CFE0346002B1ED04FF000
:101DF00000024FF00003DDE91601FEF771FE034615
:101E0000002B13D0012312E00000000000C05F404F
:101E1000E002002000000020000060C00000E0415F
:101E200068030020100300200000F03F00238DF81D
:101E300042309DF84230002B15D04FF00002984BF5
:101E4000DDE91A01FEF74CFE0346002B0BD0954B43
:101E5000D3E982239449C1E90623924BD3E9822333
:101E6000CDE9142380E19DF84230002B1ED04FF0C5
:101E700000024FF00003DDE91A01FEF731FE0346D0
:101E8000002B13D0874BD3E97E014FF000024FF0B7
:101E90008043FEF7E7FC02460B468349C1E906236F
:101EA000804BD3E97E23CDE914235DE14FF000029E
:101EB0007B4BDDE91C01FEF713FE0346002B36D0F9
:101EC0004FF00002764BDDE91601FEF709FE0346EE
:101ED000002B2CD04FF000024FF00003DDE91A0177
:101EE000FEF7FEFD0346002B21D06E4BD3E97E2387
:101EF000089283F0004309934FF000024FF08043B3
:101F0000DDE90801FEF7AEFC02460B466649C1E971
:101F10000623644BD3E97E014FF000024FF080436B
:101F2000FEF7A0FC02460B46CDE914231CE14FF05E
:101F300000024FF00003DDE91C01FEF7D1FD03466E
:101F4000002B28D04FF000024FF00003DDE916010E
:101F5000FEF7C6FD0346002B1DD04FF00002504B8C
:101F6000DDE91A01FEF7BCFD0346002B13D04D4BF3
:101F7000D3E97E234C49C1E906234A4BD3E97E01CC
:101F80004FF000024FF08043FEF76CFC02460B4618
:101F9000CDE91423E8E04FF000024FF00003DDE943
:101FA0001C01FEF79DFD0346002B35D04FF00002CB
:101FB0003B4BDDE91601FEF793FD0346002B2BD0CA
:101FC0004FF00002364BDDE91A01FEF789FD0346AA
:101FD000002B21D0334BD3E97E014FF000024FF0AC
:101FE0008043FEF73FFC02460B462F49C1E906231A
:101FF0002C4BD3E97E230A9283F000430B934FF0DE
:1020000000024FF08043DDE90A01FEF72BFC024697
:102010000B46CDE91423A7E04FF00002234BDDE986
:102020001801FEF767FD0346002B11D01D4BD3E9C5
:1020300080230C9283F000430D931B4BDDE90C12BF
:10204000C3E90612174BD3E98023CDE914238BE0B3
:102050004FF00002154BDDE91801FEF75FFD034666
:10206000002B25D00CA3D3E90023DDE91801FEF7EE
:1020700041FD0346002B1BD00A4BD3E980230A49BC
:10208000C1E90623074BD3E980231146149183F05D
:102090000043159368E000BF0000000000C05240FC
:1020A0000000F03F00000020E00200200000394066
:1020B0008BA3D3E90023DDE91801FEF72FFD0346CA
:1020C000002B18D04FF00002874BDDE91801FEF716
:1020D00011FD0346002B0ED0844BD3E9802392469A
:1020E00083F0004B824BC3E906AB804BD3E98023DE
:1020F000CDE9142338E001231C464FF000027A4B4F
:10210000DDE91801FEF70AFD0346002B01D100238B
:102110001C46E3B283F00103DBB2002B13D1012391
:102120001C464FF00002734BDDE91801FEF7E2FC9C
:102130000346002B01D100231C46E3B283F00103C8
:10214000DBB2002B10D0694BD3E9802311461491E8
:1021500083F000431593654BD3E98023904683F0C9
:102160000049634BC3E9068902220821012000F0DF
:10217000BBFD03461846FEF7D1F902460B465C4903
:10218000C1E90A235A4BD3E90A015B4B00935B4B2D
:102190005B4AFEF7C1FD564BD3E90201534BD3E92D
:1021A0008E23FEF7C5FC0346002B05D04F4BD3E929
:1021B0004623CDE91A2304E04C4BD3E94823CDE96B
:1021C0001A230221012000F063FD03461846FEF7A2
:1021D000B5F902460B46CDE9162308220821012055
:1021E00000F082FD03461846FEF798F902460B46BA
:1021F0003F49C1E90A233E4BD3E90A01414B009311
:10220000414B424AFEF788FD394BD3E90401374B75
:10221000D3E99423FEF78CFC0346002B05D0334B07
:10222000D3E94223CDE91C2304E0304BD3E9442316
:10223000CDE91C230321012000F02AFD03461846A6
:10224000FEF77CF902460B46CDE91223284BD3E971
:10225000082310461946FEF775FC0346032B37D0BA
:10226000032B55DC012B02D0022B29D050E01F4B51
:10227000D3E90823DDE91C01FEF75AFC0346002BD5
:102280000CD01A4BD3E90601DDE91223FEF7C0F9A1
:1022900002460B461649C1E90A2304E01449DDE968
:1022A0001623C1E90A23124BD3E90A01DDE91A23F7
:1022B000FEF7AEF902460B460D49C1E90A232EE0AE
:1022C0000B494FF000024FF00003C1E90A2326E05A
:1022D000074BD3E906230649C1E90A231FE000BFE3
:1022E0000000000000C052400000594000000020E3
:1022F000E002002000405A40C80200206403002091
:10230000E8020020D002002066030020F002002036
:10231000914BD3E956239149C1E90A2300BF8F4B62
:10232000D3E90A018C4BD3E99823FEF771F90246F1
:102330000B468A49C1E90A23894BD3E90A01864B36
:10234000D3E92C23FEF7CCFB0346002B0DD1844BA5
:102350001B6A012B03D1824B012283F824207E4B80
:10236000D3E92C237E49C1E90A237D4B93F824301D
:10237000002B03D07A4B002283F82420774BD3E93B
:102380000A0173A3D3E90023FEF7D2FB0346002B17
:1023900006D072496EA3D3E90023C1E90A2310E0F5
:1023A0006E4BD3E90A014FF000026E4BFEF7A2FB21
:1023B0000346002B05D069494FF00002694BC1E983
:1023C0000A23664BD3E90A2310461946FEF7FCFCA4
:1023D00002460B466149C1E90A23604BD3E90A0171
:1023E0004FF00002604BFEF785FB0346002B09D03F
:1023F0005A4BD3E90A2310461946FEF7A3FB0346BE
:10240000119302E06FF0004311931199032000F043
:10241000A3FC564B5B79002B0BD14F4BD3E99A01B0
:10242000DDE91423FEF7F4F802460B464B49C1E9F7
:1024300000234A4BD3E9082310461946FEF782FBD6
:102440000346032B38D0032B3DDC012B02D0022B9B
:102450002AD038E0404BD3E92623DDE91C01FEF702
:1024600067FB0346002B0AD03B4BD3E92423DDE96D
:102470001601FEF7CDF802460B46CDE91223DDE941
:102480001A23DDE91201FEF7C3F802460B46104697
:102490001946314BD3E92823FEF7BAF802460B461A
:1024A0002E49C1E90A2315E02C494FF000024FF0F4
:1024B0000003C1E90A230DE0284BD3E90023274993
:1024C000C1E90A2306E0244BD3E956232349C1E995
:1024D0000A2300BF204BD3E99C01204BD3E90A23F8
:1024E000FEF796F802460B46CDE914231C4BD3E9C0
:1024F0000E01194BD3E92A23FEF7F2FA0346002B0B
:102500000DD1174B1B6B012B03D1154B012283F807
:102510003420114BD3E92A231149C1E90E23104B72
:1025200093F83430002B03D00D4B002283F8342075
:1025300007A3D3E90023DDE91401FEF7F9FA034606
:10254000002B15D002A3D3E90023CDE914231EE00C
:102550000000000000C05F4000000020E0020020FA
:1025600010030020000060C00000E041680300206C
:102570004FF00002284BDDE91401FEF7BBFA0346D9
:10258000002B04D04FF00002234BCDE91423DDE9EA
:102590001401FEF719FC02460B462049C1E90A2343
:1025A0001E4BD3E90A014FF000021D4BFEF7A2FAC1
:1025B0000346002B09D0194BD3E90A2310461946CC
:1025C000FEF7C0FA0346119302E06FF00043119347
:1025D0001199022000F0C0FB0DF13E020DF13F0306
:1025E00011461846FEF755FB0121012000F050FB73
:1025F0000421012000F04CFB0A4B5B79002B04D135
:102600000949DDE91823C1E91223FEF769FB00BF80
:102610001FB0BDE8F08F00BF000060C0E0020020E6
:102620000000E041680300201003002008B50820E6
:1026300000F00AF9314B1A78314B83F850202F4BB8
:102640005A782F4B83F851202C4B9A782C4B83F8D7
:1026500052202A4BDA782A4B83F85320274BD3E9B0
:1026600070232749C1E91023244BD3E97C23244953
:10267000C1E912232348FEF743FB2348FEF740FB42
:102680001E4BD3E93E231E49C1E906231C4B012200
:102690001A611B4B00221A75184BD3E940231849C5
:1026A000C1E90223164B01221A60154B00221A7150
:1026B0000120FEF7DFFA0220FEF7DCFA0320FEF726
:1026C000D9FA0E4BD3E92C230D49C1E90A230C4B4F
:1026D00001221A620A4B002283F82420074BD3E917
:1026E0002A230749C1E90E23054B01221A63044B33
:1026F000002283F8342000BF08BD00BF0000002086
:1027000010030020E8020020F002002000BF704704
:1027100000B587B0402303934FF000024FF0000351
:10272000CDE90423039B202B0AD100F01BF80346BC
:102730001846FDF715FF02460B46CDE9042307E0D6
:10274000074B019300230093DDE90023CDE9042327
:10275000DDE904231046194607B05DF804FB00BF0D
:102760000000F07F82B04FF0FF430193019B1846B9
:1027700002B0704700B587B0402303934FF00002CA
:102780004FF00003CDE90423039B202B0AD100F076
:102790001BF803461846FDF7E3FE02460B46CDE95B
:1027A000042307E0074B019300230093DDE9002396
:1027B000CDE90423DDE904231046194607B05DF88E
:1027C00004FB00BF0000F0FF82B0034B0193019BAC
:1027D000184602B0704700BF000080FF00B587B008
:1027E000402303934FF000024FF00003CDE9042390
:1027F000039B202B0AD100F01BF803461846FDF777
:10280000AFFE02460B46CDE9042307E0074B0193D8
:1028100000230093DDE90023CDE90423DDE904234F
:102820001046194607B05DF804FB00BF0000F8FF32
:1028300082B04FF000030193024B0193019B1846B5
:1028400002B070470000C0FF00B583B00190FFF7F1
:10285000C5FF02460B461249C1E90023FFF7E8FF16
:102860000346104A1360FFF753FF02460B460E491A
:10287000C1E90023FFF776FF03460C4A1360FFF718
:1028800079FF02460B460A49C1E90023FFF79CFF86
:102890000346084A136000BF03B05DF804FB00BFA5
:1028A0008003002090030020700300208803002094
:1028B000780300208C03002000B587B0CDE900012B
:1028C00000238DF8173040230493049B202B0BD159
:1028D000DDE90001FEF75EF90346184600F024F832
:1028E00003468DF8173016E0DDE90023CDE9022319
:1028F000039A0C4B13400B4A934209D1039BC3F339
:102900001303002B02D1029B002B01D0012300E016
:1029100000238DF817309DF81730184607B05DF882
:1029200004FB00BF0000F07F84B00190019B039383
:10293000039B03F0FF43B3F1FF4F06D1039BC3F3A7
:102940001603002B01D0012300E00023DBB2184660
:1029500004B0704700BF704700B583B0019000F02D
:102960002FF900BF03B05DF804FB00BF7047000003
:1029700008B5022300224FF40071024801F0B0FABA
:1029800000BF08BD5929000808B50F4B1B680F4A46
:10299000136000F065F90346002B0BD000F058F9E6
:1029A0000346002B03D0084B01221A6002E0064BBD
:1029B00000221A60044B1A68044B1B689A4201D02B
:1029C00000F0DFF900BF08BD940300209803002049
:1029D00000B585B00190019B1B68039300F0BAF924
:1029E00003460A4A13600A4800F07BF8FFF7CCFF61
:1029F00008490398FDF79CFB03461846FEF71AF9B1
:102A000003461946014800F033F8ECE79C03002028
:102A1000A803002000007A4400B585B00190009121
:102A2000052303930E4800F02FF80D4800F048F8F6
:102A30000C4800F029F80B4800F042F8039B0022F4
:102A40004FF48861084800F02BF801AA039B4FF46B
:102A50008861064800F024F800BF05B05DF804FB6B
:102A6000A8030020A4030020012B0008D12900089E
:102A700000B583B0019000910099019801F01CFC11
:102A800000BF03B05DF804FB00B583B0019000F017
:102A900074FC0246019B1A6000BF03B05DF804FBA2
:102AA00000B585B00390029101920093009B019ABA
:102AB0000299039801F014FA00BF05B05DF804FB19
:102AC00000B585B00190019B1B684FF0FF3118469F
:102AD00000F063FC03460393039B184605B05DF8C2
:102AE00004FB00B585B00190019B1B68184600F0FF
:102AF0003FFC03460393039B184605B05DF804FBB7
:102B000000B583B001901D4B1B681B68002B0CBFE8
:102B100001230023DBB21A46194B1A701AE0194838
:102B2000FFF7CEFFFEF7B4F9144B1B681B68002BB0
:102B300014BF01230023DBB21A46134B1A70124B49
:102B40001B78DBB2002B0CBF01230023DBB21A463B
:102B50000B4B1A700A4B1B78DBB2002BDFD1084BF2
:102B600000221A70019800F011F8002001F05EFABE
:102B70000023184603B05DF804FB00BF2859000885
:102B8000D8020020A8030020A003002000B583B0D5
:102B90000190084B01221A60074B00221A70FFF7C0
:102BA000B5FD0648FFF79DFF0023184603B05DF80A
:102BB00004FB00BFB8030020D8020020A4030020BB
:102BC00000B583B001900091084B1B6800221A6089
:102BD000FFF72CFD00210648FFF71EFF0548FFF711
:102BE0006FFF0023184603B05DF804FB2859000866
:102BF0000AD7A33CA40300201A280CD8074B084A84
:102C000053F82030105C9B6800F00F0023FA00F0AE
:102C100000F0010070470020704700BF2C590008E9
:102C2000985900081A280DD8074A084B125C53F827
:102C3000203002F00F02012000FA02F209B11A61FD
:102C400070475A61704700BF985900082C59000816
:102C5000024B1888C0F38000704700BF380900207D
:102C6000064B188880B200F002039BB223B980F0B3
:102C70000800C0F3C00070470120704738090020E9
:102C8000024B1888C0F3C000704700BF380900200D
:102C900038B504460D46FFF7F3FFC0B90623691E99
:102CA00091FBF3F203FB1211013C0C23C9B204F0B7
:102CB000010403FB04140B4B01391C19A079FF28F4
:102CC00008BFFE207F380129C0B207D804E0FFF713
:102CD000BFFF0028E2D003E04042C0B240B238BD9E
:102CE000002038BD1809002070B505460E46144670
:102CF000FFF7C6FF78B9711F013D154B01F00301C5
:102D00000C2005F00105012900FB05300AD007D38E
:102D1000022913D10FE0FFF79BFF0028EBD015E04D
:102D2000C17901E0C179890801F0020301F00101D4
:102D300041EA430305E0037A1B0902E0037A03F04A
:102D40000F0323420CBF0020012070BD002070BD86
:102D50001E09002000F07EBF38B505460C46FFF77F
:102D60007FFF68B114F17F0103D4FF29A8BFFF21C1
:102D700000E000212846C9B2BDE8384000F03ABA68
:102D800038BD00F0C7BA00001A2803460A4606D824
:102D9000034951F820000349C95C00F0C3B87047EB
:102DA0002C590008985900088900C9B210B50F24A1
:102DB00004FA01F402FA01F2036823EA040313435C
:102DC000036010BD72B60C4B1A6801321A600B4AD0
:102DD000936811460A4A43F00103106843F4A003C4
:102DE00040F001001060044A8B601368013B1360DF
:102DF00003B962B6704700BF7C0400200024014084
:102E0000080002400FB47FB50898431E0F2B2DD841
:102E100072B6184A1B051168019301311160164AF8
:102E2000002309AC0293039303A9506000941A464F
:102E300054F8225005F01F0505FA03F60D68053316
:102E400035431D2B0D6001D9043900230132824224
:102E5000EED10A4B019ADA62029A1A63039A5A6314
:102E6000044A1368013B136003B962B6BDE87F40B2
:102E700004B070477C040020080002400024014098
:102E80002DE9F84F05460C46904602F00D0772B644
:102E9000234B00261A685FFA87FB01321A6008F09C
:102EA000020A4FF00109E2070ED52846F1B25A4650
:102EB000FFF77AFF082F07D109FA06F3BAF1000FDE
:102EC00001D02B6100E06B6101366408082EEAD165
:102ED000002605F104095FFA87FA08F00208E30703
:102EE00011D54846F1B25246FFF75EFF082F0AD1CE
:102EF000012106F1080301FA03F3B8F1000F01D034
:102F00002B6100E06B6101366408082EE7D1044AAA
:102F10001368013B136003B962B6BDE8F88F00BFC8
:102F20007C040020F8B50546164672B6124B01F037
:102F30000F041A6806F00D070132072C1A60FAB266
:102F400004D9A4F108010430C9B200E02146FFF71A
:102F50002BFF082F08D14FF0010303FA04F416F0F9
:102F6000020F14BF2C616C61034A1368013B1360AC
:102F700003B962B6F8BD00BF7C040020264B20F0E8
:102F800003001B68002230B5011D1446184612E0EC
:102F900005688D4206D143680CB1636025E01E4A86
:102FA000136022E005D91AB1AA4228BF2A4600E0E0
:102FB0002A46044640680028EAD1E2B1541A072C98
:102FC00098BF114615E01C68944210D1914207D178
:102FD0005A6808B1426001E00F490A60181D30BD0F
:102FE000521A99509818043A1A60043030BD1846A5
:102FF0005B68002BE7D1094B094A1868904208D258
:10300000121A8A4205D30A1D82181A6040F8041B5E
:1030100030BD002030BD00BFBC030020EC08002004
:1030200000FF002070B500284BD0264A002113680D
:10303000041F01604BB950F8043CC018224B1968BA
:10304000814200D115E0146070BD1A4600E02A46A6
:10305000A24210D350F8045C02604619964206D191
:1030600016685268AD19043540F8045C026031B945
:10307000144B1C6070BD55681146002DE7D10A46FF
:1030800052F8045B4C605219944206D150F8042C5B
:10309000AA1804320A6002684A60002201E01A4657
:1030A0000B4659680029FAD118681D1D2D180648CD
:1030B0000468AC4205D112B902490A6000E05160CF
:1030C000036070BDBC030020EC08002010B572B690
:1030D000054C236801332360FFF7A4FF2368013BFD
:1030E000236003B962B610BD7C04002010B572B62F
:1030F000054C236801332360FFF740FF2368013B41
:10310000236003B962B610BD7C040020124B4FF05F
:1031100000011878114A8028114B08D99986803807
:103120001021516180B20821116118870FE07E28BB
:1031300009D81987C0F17F000821516180B21021A0
:103140001161988603E09986198718235361044B0F
:1031500046F668021A837047C0030020001401403D
:1031600000080040154B4FF000015878144A8028A1
:10317000144B0AD9998780384FF48071516180B21D
:1031800080211161A3F8400013E07E280BD8A3F83A
:103190004010C0F17F008021516180B24FF48071F6
:1031A0001161988705E09987A3F840104FF4C07328
:1031B0005361044B46F668029A837047C0030020AF
:1031C000001401400008004038B5094B5C881D46DA
:1031D000A4B214F0010F01D0FFF798FF04F002042D
:1031E000A4B20CB1FFF7BEFF00236B8038BD00BF57
:1031F000C0030020013810B536D172B6404B1A68B2
:1032000001321A603F4B1A785C881970E307D0B21C
:1032100067D40B0601D57E2804D97E2921D852B265
:10322000002A1EDA384B00229A861A87374A18215C
:10323000516144F648021A8303F596339A8C02F5DD
:10324000B47292B21A8741F6FB621A829A8992B2DC
:1032500042F004029A812B4B5A8892B242F001024A
:103260003BE0FFF753FF3CE0092841D172B6244B05
:103270001A6801321A60234B5A785C88597004F03E
:1032800002039BB2D0B263BB0B0601D57E2804D9E2
:103290007E2924D852B2002A21DA1B4B00229A87B9
:1032A000A3F84020194A4FF4C071516144F6480216
:1032B0009A8303F596339A8C02F5B47292B21A8708
:1032C00041F6FB621A829A8992B242F004029A8114
:1032D0000C4B5A8892B242F002025A8001E0FFF78A
:1032E00041FF074A1368013B136043B962B610BD42
:1032F000082804D80138064BC0B21818817110BDD7
:103300007C040020C003002000080040001401409D
:10331000F808002072B612494FF4CC720B681148BD
:1033200001330B60104B5A610022A3F586339A8655
:103330001A879A87A3F840207F2343700370428046
:103340000A4A9371D371137253729372D3721373C7
:1033500053730B68013B0B6003B962B6704700BF43
:103360007C040020C003002000140140F808002065
:1033700000210A460B4602F0D1B810B50120002109
:1033800002F098F8044608B1FFF7F2FF204610BD9E
:103390000A4600210B4602F09BB90A4600210B4663
:1033A00002F020B90D4A0E4B0E4900F004B852F855
:1033B000040B43F8040B8B42FFF4F9AF0A4B0B4AA2
:1033C0004FF0000100F002B843F8041B9342FFF4F1
:1033D000FBAF07480749086001F0C4BFF05C000874
:1033E00000000020DC020020E0020020BC120020CF
:1033F000C0120020EC08002038B5444A44499089A6
:103400000B78444A80B222F813000133DBB2424801
:103410000B7001210F2B016112D813F0030F3F4BEA
:1034200041F6FD62998C01D0083100E0493189B242
:1034300099861A829A8992B242F002029A8138BD24
:1034400010884CF6171380B298425AD1907800F049
:103450000204E4B2F4B110F00102314B0ED00322A9
:103460009A7000225A717F229A71DA711A725A7216
:103470009A72DA721A735A73002440E0022199702A
:10348000284C55215971105D99180132082A88710C
:10349000F9D1F1E700F00405EDB21DB1204B08228F
:1034A0009A702CE00828E7D11D4B9870D378DCB2D5
:1034B00004F00802D2B262B104F04004E4B25BB29C
:1034C000002C14BF0D240924002B03DB44F002045C
:1034D00000E00C460E4B5A8892B2944202D05C80B7
:1034E00001F030FE0B4B1B79202B094B9A8803D837
:1034F0003F2A04D8013201E00AB1013A9A800A4B0E
:103500001C80034B00221A7038BD00BF0030014000
:10351000C4030020180900200018014000340140B5
:10352000F8080020F008002038090020084B1B781C
:10353000042B03D1074A4FF400615161064A01216F
:103540005161064A32F81320054B92B29A817047B6
:10355000C40300200008014000180140F8080020C2
:10356000003001402C4A012310B513612B4B002180
:1035700099712B4B998999899989998999899989FF
:1035800099899B8901E030BF00BF93681B07FAD47B
:10359000936813F01003F6D1224A234913801F4A7F
:1035A0001846538093801370012221F812000132D3
:1035B000102A1D4BF9D14CF617121A8002229A706C
:1035C000012283F82020194C7F229A710021DA71A0
:1035D0001A725A729A72DA721A735A736018013137
:1035E00006298271114B8274F8D100225A739A73A2
:1035F0005A769A760E4B50221A7052225A704F22E7
:103600009A705322DA7020221A715A719A71DA7103
:10361000034B40229A8010BD00180140C4030020D3
:103620000030014038090020F80800201809002067
:10363000F008002008B5094A01E030BF00BF138838
:10364000D907FAD5322001F069FE054801F0F6FEEF
:103650000448BDE8084001F0F1BE00BF3809002071
:10366000685B0008EC5B0008074B684620F0070128
:103670001B898D4601B5D80701D5FFF7BDFEBDE812
:1036800001408546704700BF00300140164B9B88C3
:10369000202B03D8144B1A785AB122E0134B7F2207
:1036A0009A71DA711A725A729A72DA721A735A73BA
:1036B000F0E799790D4A82F82110013199710C4B8C
:1036C000198901F0020189B269B10A494FF4006019
:1036D0000861012001F580514861128892B29A81F7
:1036E0007047FFF789BE7047C4030020F808002028
:1036F0000030014000080140BA4B4FF41F02F0B502
:103700009A60B94A002111611A6887B022F48022B8
:1037100042F480321A605A6822F003025A60196833
:10372000B04A8903FBD5B14B196821F0030141F080
:1037300012011960AE4B5360136843F0807313603D
:10374000136813F0007FA74BFAD05A6842F00202C8
:103750005A605F68A34C07F00C07082FF9D1A54BFE
:1037600000251D60A36943F07D03A361E36843F076
:103770007D02E260BFF34F8F1F21E3602A469E481F
:10378000FFF77EFB09229C484FF42871FFF778FB76
:103790000A2104229848FFF7C5FB984E0B2101220D
:1037A0009548FFF7BFFB0A2293484FF24011FFF7FD
:1037B00067FB304639460122FFF7B4FB304609214A
:1037C0000122FFF7AFFB4FF4807333614FF40073B6
:1037D000336130460A224FF6FF41FFF751FB0F21BC
:1037E0002A468748FFF74CFB0A2109228448FFF745
:1037F00099FB0B2104228248FFF794FB3A4680484C
:103800004FF46041FFF73CFB0A227D4841F2F03162
:10381000FFF736FBFFF77EFD7A4805210922FFF707
:1038200081FB062104227748FFF77CFB01227548C3
:103830004FF4CC71FFF724FB092272484FF470411A
:10384000FFF71EFB0A226F4840F60761FFF718FBDF
:10385000612101226C48FFF713FB0A226A484FF6E8
:103860009E71FFF70DFB694B41F2DA025A60684A1C
:103870003321DD611560556099604FF40851D960BE
:1038800044F244411961A1F580415961614BD56011
:1038900095605361A36943F48053A361E36843F4E3
:1038A0008052E260BFF34F8FE3605B4B40F66532BE
:1038B0001A809D8001F090F8A36943F48043A361CE
:1038C000E36943F4C023E361E36843F48042E260C8
:1038D000BFF34F8FE360236943F4C0222261BFF33B
:1038E0004F8F23614D4B40F239129D81A3F80C5448
:1038F00003F574431A8142F22C029A8101F060FAB6
:10390000E36943F40013E361236943F40012226185
:10391000BFF34F8F2361A4F5DE344FF400432380BF
:103920002025013DFDD14FF4927325800A26A38006
:1039300048F25A03A3832684238810209BB243F4C1
:10394000806343F00103238001F048FAA389082132
:1039500023F001031B041B0CA3810D222748FFF752
:10396000E1FA09210D222548FFF7DCFA1D4BDA693F
:1039700042F01C02DA619A6942F420529A611A6993
:1039800042F01C011961BFF34F8F1A61DA6842F4EB
:103990002051D960BFF34F8F2149DA606E228A85AA
:1039A0004FF420720A8546F6680043F233320883EA
:1039B0004FF6FF74888337270A8401220A80A1F812
:1039C0002C44A1F82854A1F80874A1F80C24472726
:1039D000A1F8002401F596318C850F8520278F8072
:1039E00020E000BF0010024000ED00E00020024097
:1039F00000841D003C09002000080140000C01402B
:103A00000010014000140140001801400000014076
:103A100000040140FFFF0700003001400044004067
:103A2000000800400A80A1F500618C850A850883A2
:103A300088834FF401400D84A1F844008120088060
:103A400040F2C114A1F58E31032008858C858024B5
:103A50000C808F80596942F2A05401435961524948
:103A60000C60524C8C60524CCC6042F2B654C1F89F
:103A70002844504CC1F83044996941F4007199616F
:103A8000D96841F40074DC60BFF34F8F4A4CD960B1
:103A90004FF480736360494B2946A3600C23019364
:103AA0000D2302930B230090049303960223082016
:103AB000FFF7A8F9424BE36003F134532361414B14
:103AC000A3600833A360A3681B07FCD43E4A3A4BAB
:103AD0009A60A36813F00407FBD1FFF773F93B4B1F
:103AE000DA6942F00052DA611A6942F00051196154
:103AF000BFF34F8F1A6141F20702A3F5CE331A606C
:103B0000334A4FF000639360324B2020D360E023B0
:103B100082F82230304BD0244FF48041D4774026B5
:103B200083F82E035960C02183F82513802558603F
:103B300083F826135E6083F82713B0215D6083F855
:103B4000231308215960302183F806131E6083F87F
:103B500007131D604FF4000583F817131D604FF421
:103B6000807583F828135D6083F81F034FF00040D1
:103B70001860012083F82013586083F83A134FF03F
:103B80008061596042F2273143F8EC1C032182F82E
:103B9000234043F8E87C43F8F01C4FF4C023536201
:103BA00062B661B607B0F0BD080002404C24014087
:103BB000CC080020087400400024014002010E00DF
:103BC0006DDBB60003010E0007010E00001002407D
:103BD00000ED00E00003FA0500E100E068461C4A41
:103BE00020F007018D4619B5138A9489A4B21C40B0
:103BF00004F002039BB23BB1938923F002031B0440
:103C00001B0C9381FFF792FC04F004039BB243B1B9
:103C10000F4A938923F004031B041B0C9381FFF7C5
:103C2000D3FA04F008039BB243B1094A938923F005
:103C300008031B041B0C938101F0DEF804F0100450
:103C4000A4B20CB100F004FCBDE8194085467047F1
:103C500000340140014B1868704700BF3C09002048
:103C6000084A0949938C888C928C9BB292B29A42F2
:103C700080B204D047F6FE71884298BF134640EAEE
:103C800003407047000C00400034014003480068C6
:103C9000006880F3088862B600DF00BF08ED00E02E
:103CA000064AC36A01461068834288BF1360044A0B
:103CB000142000FB0320043101F07EBBCC03002064
:103CC000D003002038B5084C0546E16F41F8040FD9
:103CD00004F1800001F07DFBD4F894309D4238BFA0
:103CE000C4F8945038BD00BFCC030020F8B5234C75
:103CF000234F0026D4F8983043B3D4F89C301BB33C
:103D000072B6D4F8B0300133C4F8B030D4F8A8306B
:103D1000DD68281D01F075FBD4F8B430013BC4F810
:103D2000B430D4F89830013BC4F89830D4F8B030AF
:103D3000013BC4F8B03003B962B6286BFFF7C6F98F
:103D40002846FFF7C3F901E0C4F89830FFF782FF77
:103D5000B042054607D3002000F0EAFD012000F044
:103D6000E7FD05F110066368012B04D97B6843F079
:103D700080537B60BEE730BF00BFBBE7CC030020B1
:103D800000ED00E0174B10B5D3F8B820910703D52C
:103D9000012283F8BC2010BDD20721D553F8042B93
:103DA000142400E0013A04FB02F019181858002806
:103DB000F8D04B6801F108005B68834208BF5B687C
:103DC0004B600849DB680A601A6BCB671B6893423B
:103DD00003D91268044B9A4202D0032001F026FA5C
:103DE00010BD00BFCC0300202F46AA71044B1968F8
:103DF0000868B0E8F00F80F309884EF00D0E7047A8
:103E000048040020EFF30980094B1A6820E9F00FFD
:103E100010602DE9084072B6FFF7B4FF62B6BDE846
:103E2000084019680868B0E8F00F80F30988704707
:103E30004804002070B51F4CD4F8B830012B37D19E
:103E400072B6D4F8B0300133C4F8B030FFF702FFD7
:103E5000D4F89430054698421DD32646D6F88020E3
:103E6000144B12B94FF0FF3205E0D6F88C20D4681D
:103E70006268954202D2C3F894200CE0201D01F044
:103E8000C0FAA36A1BB104F1180001F0BAFA204687
:103E9000FFF706FFE2E7074AD2F8B030013BC2F86D
:103EA000B03003B962B6044B5A6842F080525A608F
:103EB00070BD00BFCC03002000ED00E0064BD3F83E
:103EC000B830012B05D1054B5A6842F080525A6038
:103ED000704730BF00BF7047CC03002000ED00E00A
:103EE0002DE9F843494D1E46D5F8B4308146102BD4
:103EF0000F46904600F285803820FFF7F7F8044619
:103F000000287ED0B800FFF7F1F818B92046FFF777
:103F1000DDF876E03E4B052E28BF0526013F036005
:103F2000206300EB8707E662201D666301F041FA1B
:103F300004F1180001F03DFAC6F10603A36127F071
:103F400007074FF080732461646247F8043C314BEB
:103F500047F8089C47F80C3C47F8208C403F276006
:103F600072B6D5F8B030EF6F0133C5F8B030D5F880
:103F7000B4300133C5F8B430DFB9D5F8B430EC67EC
:103F8000012B1ED104354FF0140808FB07500137F0
:103F900001F004FA062FF8D11F4801F0FFF91F487D
:103FA00001F0FCF91E4801F0F9F91E4801F0F6F99C
:103FB00007E0D5F8B830DB0703D4FB6AB34298BFFB
:103FC000EC67124D2046D5F8E8309E4288BFC5F810
:103FD000E860FFF765FED5F8B030013BC5F8B030BA
:103FE00003B962B6094BD3F8B820D0070AD5DB6F06
:103FF000DB6AB34206D20C4B5A6842F080525A60D8
:1040000000E000242046BDE8F88300BFCC03002078
:104010002F46AA71A14000084C0400208C04002007
:1040200068040020A004002000ED00E070B572B626
:10403000184CD4F8B0300133C4F8B03008B9E56F8B
:1040400000E005462E1D304601F0DBF9AB6A1BB1DE
:1040500005F1180001F0D5F90F48314601F0ACF92F
:10406000D4F898300133C4F89830D4F8B030013B1C
:10407000C4F8B03003B962B6064BD3F8B820D20703
:1040800007D5DB6F9D4204D1044B5A6842F0805241
:104090005A6070BDCC0300206804002000ED00E0F1
:1040A0000020FFF7C3BF0000F8B5044672B61C4EEF
:1040B000D6F8B0300133C6F8B03008B9F56F00E07B
:1040C00005462F1D384601F09CF9AB6A1BB105F17E
:1040D000180001F096F91348394601F06DF9D6F849
:1040E000B030013BC6F8B03003B962B6B4B90C4B7E
:1040F000D3F8B820D10705D50B4B5A6842F080524F
:104100005A60F8BDD3F8D410D3F8B420914201D14D
:10411000DC67F8BDBDE8F840FFF734BEF8BD00BF6E
:10412000CC030020A004002000ED00E038B50446D8
:1041300072B61548D0F8B0300133C0F8B030C4B111
:10414000D0F8B8309D0706D5C03004F1180101F051
:1041500033F900250EE0C36FDD6AE36AAB4234BF7A
:1041600000250125201D01F04CF92046FFF798FDA0
:1041700000E02546044AD2F8B030013BC2F8B03026
:1041800003B962B6284638BDCC030020002208B52A
:104190000C4840211346FFF7A3FE88B172B60A4BC4
:1041A0004FF0FF32C3F8942001210022C3F8982079
:1041B000C3F8B810C3F8B020BDE80840FFF766BDEB
:1041C00008BD00BFED3C0008CC030020034BD3F832
:1041D000B82042F00202C3F8B8207047CC03002098
:1041E00070B572B6224BD3F8B0200132C3F8B020BC
:1041F000D3F8B82022F00202C3F8B820D3F8B420D4
:10420000AAB900242AE0D6F8CC30DD6805F1180000
:1042100001F0F7F8281D01F0F4F82846FFF740FDFB
:10422000F36FEA6ADB6A9A4228BF012401E00024A6
:104230001E46D6F8C030002BE5D1FFF7FBFD24B9B0
:104240000B4B93F8BC30002BDBD0094B002283F8DA
:10425000BC20084B5A6842F080525A60044AD2F897
:10426000B030013BC2F8B03003B962B6204670BD31
:10427000CC03002000ED00E010B5044628B90C4B3B
:104280005A6842F080525A6010BDFFF79FFFFFF757
:10429000E1FC084B0419D86F043001F0B2F8204655
:1042A000FFF710FDFFF79CFF0028E8D010BD00BF0E
:1042B00000ED00E0CC03002038B505460C46FFF7C2
:1042C00085FF2B68E418FFF7C5FC84422C6007D9F2
:1042D000084BD86F043001F094F82046FFF7F2FC49
:1042E000FFF77EFF20B9044B5A6842F080525A60B3
:1042F00038BD00BFCC03002000ED00E038B50D4C08
:104300000D46E16F183101F064F8E06F043001F000
:1043100078F86B1C07D1E16F04F1D4000431BDE8DB
:10432000384001F049B8FFF795FC4019BDE8384026
:10433000FFF7C8BCCC030020C36870B5DC680F4D24
:1043400004F11806304601F05CF8D5F8B8309A0749
:1043500005D505F1C000314601F02EF805E0201D1D
:1043600001F04FF82046FFF79BFCEB6FE06ADB6A39
:10437000984234BF0020012070BD00BFCC03002054
:10438000014BD86F704700BFCC03002038B50446FE
:10439000E8B10F4DC26AEB6FD96A8A4217D2D96A67
:1043A000C1F106018161291D142000FB021261691F
:1043B00091420AD1201D01F024F8EB6F2046DB6A00
:1043C000E362BDE83840FFF76BBCDB6AE36238BDEF
:1043D000CC03002010B5044680B1C26A436B9A42F8
:1043E0000CD0043001F00DF8636B2046E362C3F19A
:1043F0000603A361BDE81040FFF752BC10BD0000EA
:1044000010B5104B020104460020D118D050C879D5
:1044100001210130C0B2FEF705FC0B4A137803F00E
:10442000FD031370094B998C803189B2A3F84010B9
:1044300041F6EF611982998989B241F010019981A1
:10444000547010BD40090020B80400200034014021
:1044500070B51A4C66782578EB0726D5184B05F011
:104460000201C9B203EB061621B1B079BDE8704074
:10447000FFF7C6BFF07945F002050130C0B2FEF784
:10448000D1FBFFF7EDFB0F4BF06025709A8CA2F586
:10449000804292B2A3F8402041F6EF621A829A89D4
:1044A00092B242F010029A8170BD064A938923F0BD
:1044B00010031B041B0C938170BD00BFB8040020C7
:1044C0004009002000340140684620F007018D4675
:1044D0002DE9F14F444B4FF480711A685960434BFA
:1044E00012F40072B3F80082B3F80292B3F80872C3
:1044F000B3F80AC2B3F8105284B01944B3F8126288
:1045000008BF194601921FFA88F8BFB2ADB2384A07
:1045100000911FFA89F91FFA8CFCB6B22946384679
:10452000444600234C44A4B24FEA542A604402EBB0
:104530004A0A80B2BAF998B04FEA502A02EB4A0A06
:10454000BAF998A0891989B2D3444FEA512A02EBEB
:104550004A0ABAF998A0DA440AF1040A4FEAEA0AC8
:10456000DDF800B00AF2FF7A2BF803A00233B3F5AE
:10457000807FD7D11D4B08EBC91807EBCC1705EB93
:10458000C615019A1FFA88F8BFB2ADB2A3F800822F
:10459000A3F80872A3F810520AB3B3F8042204A9CE
:1045A000013A92B2A3F80422B3F80C22D3F818020D
:1045B000013A92B2A3F80C22B3F81422013A92B253
:1045C000A3F81422002201F8012DFEF7E1FE9DF868
:1045D0000F3023B1074B5A6842F080525A6004B042
:1045E000BDE8F14F8546704700040240BC0400203E
:1045F000BC59000800ED00E0164A242303FB012308
:1046000010F1560F5B8C15D0552802D1012B09D122
:1046100012E0162802D1022B04D10FE0022801D1AA
:10462000032B0DD0042B0DD1242303FB012282F890
:10463000210007E0012306E0022304E0032302E057
:10464000042300E00023034A242000FB01214B84C3
:10465000704700BFD806002070B54D1E022D0646DB
:1046600022D8154B882404FB053401E0FFF726FC13
:1046700062782378013202F03F029A42F6D06378E2
:10468000F1B2E218013303F03F03917063700DB98A
:104690000A4B03E0012D0CBF094B0A4B9A8992B2D9
:1046A00042F080029A8105E008463146BDE870403C
:1046B00000F054BB304670BD20070020004400408D
:1046C0000048004000380140684620F007018D4650
:1046D00001B5002382B08DF80730284B1A8802F00C
:1046E000200292B2EAB19888254B80B293F89B11D0
:1046F00093F89A21013101F03F0191420AD093F8D9
:104700009B21C0B29918013202F03F0281F89C014E
:1047100083F89B211A4B0DF10701D3F8DC01FEF75A
:1047200037FE164A138803F080039BB2CBB1144BBB
:1047300093F8580193F85911884206D1938923F0D0
:1047400080031B041B0C93810BE093F8581158183D
:1047500090F85A01013101F03F0183F8581143B23A
:1047600093809DF8073023B1064B5A6842F080527F
:104770005A6002B0BDE801408546704700380140EC
:10478000D806002000ED00E0684620F007018D46C5
:1047900001B52F4B82B01A88002102F0200292B29C
:1047A0008DF8071032B398882A4BC0B293F82020B6
:1047B00002F00402D2B21AB140B2FFF71DFF19E0B5
:1047C00093F88B1093F88A20013101F03F01914258
:1047D00009D093F88B209918013202F03F0281F83A
:1047E0008C0083F88B201B4B0DF10701D3F8CC0014
:1047F000FEF7CEFD164A138803F080039BB2CBB1BF
:10480000144B93F8480093F84910884206D19389D5
:1048100023F080031B041B0C93810BE093F84810DA
:10482000581890F84A00013101F03F0183F8481010
:1048300043B293809DF8073023B1074B5A6842F08A
:1048400080525A6002B0BDE801408546704700BF03
:1048500000440040D806002000ED00E0684620F04B
:1048600007018D4601B5002382B08DF807302D4B2E
:104870001A8802F0200292B23AB398882A4BC0B24A
:1048800093F8442002F00402D2B222B140B20121D6
:10489000FFF7B2FE19E093F8131193F812210131DA
:1048A00001F03F01914209D093F813219918013288
:1048B00002F03F0281F8140183F813211A4B0DF125
:1048C0000701D3F85401FEF763FD164A138803F07D
:1048D00080039BB2CBB1144B93F8D00093F8D11066
:1048E000884206D1938923F080031B041B0C93811B
:1048F0000BE093F8D010581890F8D200013101F075
:104900003F0183F8D01043B293809DF8073023B164
:10491000064B5A6842F080525A6002B0BDE801402E
:104920008546704700480040D806002000ED00E0B2
:10493000284B24222DE9F04102FB003393F820603C
:1049400006F00402D2B2002A41D0441CF2071D46F0
:1049500005D526F00102103583F8202003E046F04B
:10496000010385F820302146AA20FFF775FE214675
:104970005520FFF771FE21461E20FFF76DFE06F061
:10498000030621461220FFF767FE30462146FFF757
:1049900063FE102795F80080B8F1000F08D04FFA99
:1049A00088F021464644FFF757FEF6B2013505E090
:1049B00020202146FFF750FE2036F6B2013FE9D114
:1049C000704240B22146BDE8F041FFF745BEBDE868
:1049D000F08100BFD806002038B5134C002584F8BC
:1049E0009A5184F89B5184F8585184F89B51FEF7F2
:1049F000C4FC84F88A50C4F8DC0184F88B5084F835
:104A0000485084F88B50FEF7B8FC84F81251C4F873
:104A1000CC0084F8135184F8D05084F81351FEF779
:104A2000ACFCC4F8540138BDD8060020084B6846D9
:104A300020F00701D3F8A8308D4601B50BB10B204B
:104A40009847044B01225A61BDE8014085467047F2
:104A50004009002000040140084B684620F007018F
:104A6000D3F8B8308D4601B50BB10C209847044BF4
:104A700002225A61BDE80140854670474009002086
:104A800000040140684620F00701174B8D4631B500
:104A90005D6915F0400405D0144B9B6A0BB10320EF
:104AA000984740242B0606D5104B9B6B0BB1042076
:104AB000984744F08004E80506D50C4B9B6E0BB17B
:104AC0000720984744F48074A90506D5074B9B68D6
:104AD0000BB10120984744F40074034B5C61BDE8BE
:104AE00031408546704700BF000401404009002066
:104AF000684620F007011C4B8D4631B55D6915F401
:104B0000806406D0194B9B6F0BB1082098474FF477
:104B100080642B0506D5154B9B690BB10220984785
:104B200044F40064E80407D5104BD3F888300BB187
:104B30000920984744F48054A90406D50B4B9B6C7C
:104B40000BB10520984744F400546A0406D5074B7E
:104B50009B6D0BB10620984744F48044024B5C6186
:104B6000BDE83140854670470004014040090020FF
:104B7000074B022200F580301A6100F14002D20298
:104B80005A6142221A61DA68D207FCD4704700BF2A
:104B90000020024000F58030054B403010B5C002C7
:104BA00001241C614252DA68D107FCD410BD00BF59
:104BB000002002402DE9F74F471F032F63D8344AE6
:104BC0000C2303FB0723B3F88A1001F0020080B224
:104BD000002851D0D3F88060B3F8885006F1100057
:104BE000C10AD3F88480CC022A4B4D192A49C6EB5E
:104BF0000806596001F18831596026F00106041B4E
:104C000002F1B00992464FF0030B40F2FF7324E02B
:104C1000ACB97F2D0DD91E4B0C2202FB0737C6EB1A
:104C200008061C4B26F001068022C7F880601A6136
:104C300029E01AF80520002AEDD10AF805B021462E
:104C400039F8022B28460193FFF7A4FF019B023499
:104C50009C4201D901350024023E002ED8D10D4BD3
:104C600080221A610A4B0C2202FB073728F001034D
:104C7000C7F88030304608E011F0010F0CBF4FF04C
:104C8000FF30002001E04FF0FF30BDE8FE8F00BF95
:104C9000000A002000200240230167452DE9F84367
:104CA0002B4D804600244DF6DE6904F580334033F9
:104CB000DB021A885F684A4530D1B7F5802F5A88E1
:104CC00007D24FF6FF739A4204D101232B550326D6
:104CD00011E00127B8F1000F02D108262E550AE095
:104CE0001C4B1D4A00262E555A6002F188325A602C
:104CF0002046FFF73DFF0F3704EBD72707E00134CD
:104D000016B92046FFF734FF802C665501D0BC420F
:104D1000F5D16EB90F4B80221A6109E04FF6FF738F
:104D20009A4203D17A1C01D1002300E008232B55BD
:104D300001347F2CB9D9064B0022A3F88A20A3F8AE
:104D40009620A3F8A220A3F8AE20BDE8F88300BF08
:104D5000000A002000200240230167452DE9F041B0
:104D6000471F032F0D4602D94FF0FF3523E0134BA9
:104D70000C2404FB0734B4F88A20984602F002029F
:104D800092B2002AF0D0D4F88030D4F8846003F5D1
:104D90000062964205D3FFF70DFF0028E4D1D4F856
:104DA0008030F31A434483F8B0500C2303FB078789
:104DB0000136C7F884602846BDE8F081000A00206B
:104DC00010B5FEF7DAFA00210446FEF7E6FA024BC8
:104DD00000229C601A7010BDB0120020054A00F03D
:104DE000FE00138923F0FE031B041B0C03431381F5
:104DF000704700BF0054004007B5002302A901F826
:104E0000013D064B9868FEF7C3FA9DF8073023B1C1
:104E1000034B5A6842F080525A600EBDB012002017
:104E200000ED00E068464B4B20F007018D46998A63
:104E300011B589B2C8071A8B03D5474A52781A822E
:104E400084E001F0020292B2D2B1434A5088517814
:104E5000C0B2C9070AD45168013811F8014BC0B279
:104E60001C8251605080002870D13AE001286DD139
:104E70001A8892B222F4C06242F400721A8058E09A
:104E800001F0800292B2002A32D0334A01F00401CC
:104E9000508889B280B2B9B1117801F00400C0B273
:104EA00028B121F0060141F00201117004E01A88D6
:104EB00092B242F400721A80264A938823F4C063A7
:104EC0001B041B0C938034E010F0FF003ED05168AF
:104ED00011F8014B1C825160411EC9B2518000295A
:104EE00034D19A8822F480621204120C9A802DE048
:104EF00001F0400189B249B3174A518850681C8AB1
:104F0000013901F0FF01E4B200F8014B01295060C2
:104F1000518007D11A8892B222F4C06242F4007222
:104F20001A8013E091B99A8822F4C0621204120C1C
:104F30009A800A4B9A8C043292B29A8741F6F762B1
:104F40001A829A8992B242F008029A81BDE8114011
:104F50008546704700540040B012002000340140E4
:104F6000684620F007018D4601B51C4B0022998A46
:104F700082B089B28DF8072021F4706292B29A82D1
:104F80001A8811F4306F92B207D042F400411980B0
:104F90002023013BFDD1114B01E042F400721A8045
:104FA0000F4A0E49137843F0010313708B8823F4E2
:104FB000C0631B041B0C8B8090680DF10701FEF78A
:104FC000E7F99DF8073023B1064B5A6842F080524A
:104FD0005A6002B0BDE80140854670470054004069
:104FE000B012002000ED00E038B50E4C2568FFF748
:104FF000EDF8EA0704D56068FFF718F8002363604E
:10500000AB0704D5A068FFF711F80023A360054B98
:1050100025F003051D60FEF77DF9BDE83840FFF778
:10502000DFB800BFB808002070B5134D2C6814F02D
:1050300001061FD1FFF7CAF8A10707D5A868FEF738
:10504000F5FFAE60FEF766F924F0020402230B4878
:105050004FF400710022FEF743FF074B586010B970
:10506000042000F0E3F844F001041C60BDE8704047
:10507000FFF7B6B870BD00BFB80800209151000816
:1050800010B5094C002209484FF400710223226038
:10509000FEF726FFE06010B9042000F0C7F823688F
:1050A00043F00403236010BDB8080020C951000874
:1050B00070B5134D2C6814F002061FD1FFF786F867
:1050C000E00707D56868FEF7B1FF6E60FEF722F9CA
:1050D00024F0010402230B484FF400710022FEF774
:1050E000FFFE074B986010B9042000F09FF844F0D1
:1050F00002041C60BDE87040FFF772B870BD00BFCD
:10510000B80800205551000810B50D4C23889BB2FB
:1051100003F0080292B26AB103F0020292B212B92D
:10512000FFF762FF08E003F004039BB213B1FFF73F
:105130007BFF01E0FFF7BCFF0020FEF7B5FFE5E7CE
:1051400038090020024B186908B1FEF7EFBF70471D
:10515000B808002010B5FDF7FDFB72B6094C2368B6
:1051600001332360FEF7D6F8074B1A6822F00202DB
:105170001A6000229A602368013B236003B962B67B
:1051800010BD00BF7C040020B8080020704700005C
:1051900010B5FFF7FBFF72B6094C2368013323609B
:1051A000FEF7B8F8074B1A6822F001021A600022D5
:1051B0005A602368013B236003B962B610BD00BF8B
:1051C0007C040020B808002010B5FEF743FD00F570
:1051D000C064FDF7CDFB72B6114B1A6801321A603C
:1051E000104A116821F0040111600021D1601A6891
:1051F000013A1A6002B962B6FEF72CFDA04202D253
:10520000201AFFF739F80523074840210022FEF74E
:1052100067FE044B186110B9042000F007F810BDB8
:105220007C040020B80800200951000872B61C490F
:1052300042F20C038B811B4A0C4607E00D8805F0F7
:105240008005ADB2002DF9D05BB2A38012F8013F0A
:10525000002BF3D1042811D8134B114A03EB800023
:10526000114607E0148804F08004A4B2002CF9D0A1
:105270005BB28B8010F8013B002BF3D1084A1388F6
:1052800003F080039BB2002BF9D0084A084BD16889
:1052900001F4E0610B43D360BFF34F8FFEE700BF23
:1052A000003801406E5C0008545B000800ED00E02F
:1052B0000400FA057047684620F007018D4608B5DE
:1052C0000120FFF7B3FF684620F007018D4608B5BF
:1052D0000020FFF7ABFF684620F007018D4608B5B8
:1052E0000220FFF7A3FF00000B4B68461A6820F06E
:1052F00007018D46013201B51A601A681423B2FB0A
:10530000F3F103FB11230BB9FEF7C0F9FEF792FD91
:10531000BDE80140854670473C09002010B50446B1
:10532000FEF798FC041901E030BF00BFFEF792FCC5
:10533000A042F9D310BD30B5002302E0CC58C450D0
:105340000433D41A032CF9D802F0030422F0030228
:1053500089180023821802E0CD5CD5540133A342A2
:10536000FAD130BD38B50C4C656AFEF7C5F9FEF7C9
:10537000F9F8FDF7FAFAC5F3C060FFF78FFC636A2E
:1053800043F080736362FEF755F9FFF779FEFEF78D
:10539000FDFE0420FFF74AFF0010024000F1080361
:1053A00043604FF0FF32C3600361002382600360FB
:1053B000704700230361704743685A688B604A60F6
:1053C0005A68596091600368416001330861036065
:1053D00070470A6810B5531C01D1036907E000F15A
:1053E000080300E05B685C6824689442FAD95A6854
:1053F000086191604A6059608B6003680133036003
:1054000010BD436882689A60826853600369596876
:10541000814208BF5A60002202611A68013A1A608C
:10542000704738B504460D4603E040B22946FFF701
:1054300013F914F8010B0028F7D138BD0321FFF749
:10544000F0BF026C38B5044652B1C5684368AD1868
:105450009D4228BF056808462946FFF76CFFE560B6
:1054600038BD70B5056C044635B90568F5B94068B6
:10547000FEF7B0FF656019E05AB986682A463046E3
:10548000FFF759FF636875199D4228BF2568A5601D
:105490000CE0C6682A463046FFF74DFF6D42236890
:1054A000701998423CBF60684019E060A36B0133FB
:1054B000A36370BD2DE9F0410E46074608B90024EC
:1054C00028E04420FDF712FE04460028F7D007FB31
:1054D00006F808F10100FDF709FE0546B0B100EB42
:1054E0000803C6EB0808636000EB08050023206092
:1054F000A060A36304F11000E560E7632664FFF792
:105500004DFF04F12400FFF749FF03E02046FDF7BB
:10551000DDFD2C462046BDE8F08100002DE9F84F66
:105520000446894616469A46FEF794FB2B4D2C4FAF
:10553000804604F1100B72B62B6801332B60A26B0E
:10554000E36B9A4218D0204649465246FFF789FF3E
:10555000636A4BB104F12400FEF7EEFE20B1204B4C
:105560005A6842F080525A601C4A1368013B13602B
:10557000002B2CD162B62AE00EB32B68013B2B60C6
:1055800003B962B672B62B6801332B60FEF762FB7B
:10559000C8EB0000B04212D2A26BE36B9A4207D173
:1055A00058463146FEF7AAFE7B6843F080537B6085
:1055B0002B68013B2B60002BBDD162B6BBE7074BCC
:1055C00018680138186028B962B6BDE8F88F012064
:1055D000BDE8F88F0020BDE8F88F00BF7C040020F4
:1055E00000ED00E02DE9F84F0446894616469A463C
:1055F000FEF730FB344D354F804604F1240B72B674
:105600002B6801332B60A36B4BB320464946E568FA
:10561000FFF717FFBAF1000F0CD1A36B013BA36397
:10562000236813B9FEF7ACFE606023697BB104F117
:10563000100004E0636AE5604BB104F12400FEF75A
:105640007BFE20B1214B5A6842F080525A601E4ABC
:105650001368013B1360002B2FD162B62DE026B3F7
:105660002B68013B2B6003B962B672B62B6801331D
:105670002B60FEF7EFFAC8EB0000B04215D2A36B27
:1056800063B9236813B96068FEF780FE5846314657
:10569000FEF734FE7B6843F080537B602B68013B50
:1056A0002B60002BABD162B6A9E7074B1868013815
:1056B000186028B962B6BDE8F88F0120BDE8F88F00
:1056C0000020BDE8F88F00BF7C04002000ED00E062
:1056D000F8B50446174672B60F4DC66B2A680132FC
:1056E0002A60826BB2420FD01A46FFF7BAFE636A95
:1056F0000BB9012009E004F12400FEF71DFE00288B
:10570000F7D00120387000E000202B68013B2B60AF
:1057100003B962B6F8BD00BF7C04002000000000A1
:10572000C1F30A522DE9F843A2F2FF35132D0B46BF
:1057300084460C460646074634DC002D20DB364AFC
:10574000884642FA05F901EA0902024314D030A35F
:10575000D3E90023FAF7A6FD00220023FBF7E8F9BE
:1057600040B1002C03DD4FF480132B4198440026F8
:1057700028EA09042346B44660461946BDE8F88382
:1057800023A3D3E90023FAF78DFD00220023FBF7C2
:10579000CFF90028EED0002C34DB264330D0002691
:1057A0001E4CE7E7332D08DDB5F5806FE4D10246E6
:1057B000FAF778FD84460B46DEE74FF0FF38A2F299
:1057C000134228FA02F810EA080FD5D010A3D3E943
:1057D0000023FAF767FD00220023FBF7A9F9002850
:1057E000C8D0002C09DD142D06D00123C5F13405E5
:1057F000AB401F44BE4200D9013427EA0806B9E78E
:105800003446B7E700264FF00044B3E7AFF300801B
:105810009C7500883CE4377EFFFF0F000000F03FDE
:10582000C1F30A522DE9F843A2F2FF35132D0B46BE
:1058300084460C460646074632DC002D20DB384AFB
:10584000884642FA05F901EA0902024314D032A35C
:10585000D3E90023FAF726FD00220023FBF768F9BD
:1058600040B1002C03DA4FF480132B4198440026FA
:1058700028EA09042346B44660461946BDE8F88381
:1058800025A3D3E90023FAF70DFD00220023FBF73F
:105890004FF90028EED0002C26DB00263446E9E73D
:1058A000332D08DDB5F5806FE6D10246FAF7FAFC34
:1058B00084460B46E0E74FF0FF38A2F2134228FA85
:1058C00002F810EA080FD7D013A3D3E90023FAF7A0
:1058D000E9FC00220023FBF72BF90028CAD0002C9A
:1058E0000EDB27EA0806C5E724F0004434430D4BDD
:1058F000002C4FF000060CBF4FF000441C46B9E7E7
:10590000142D06D00123C5F13405AB401F44BE421F
:10591000E7D90134E5E700BF9C7500883CE4377E99
:10592000FFFF0F000000F0BF6803002000080140E7
:105930000018014000180140001001400010014013
:1059400000180140001801400018014000180140F3
:1059500000180140001801400014014000140140EB
:105960000008014000080140000801400008014013
:1059700000100140001001400010014000100140E3
:1059800000140140001401400010014000100140CB
:10599000000C0140000C014004090B06070D0E0825
:1059A0000A0C070001000102030203000105060AB8
:1059B0000B0809000102030C0D0A0B000A0C01037D
:1059C00005060800000072007900800087008F0043
:1059D0009800A100AA00B400BF00CB00D700E300EC
:1059E000F100FF000E011E012F0141015401690168
:1059F0007E019501AD01C601E101FE011C023C02E0
:105A00005E028202A902D102FC0229035A038D031D
:105A1000C303FC0338047904BD0405055105A20540
:105A2000F8055306B30619078507F7077008F1084C
:105A30007909090AA20A440BEF0BA50C650D310E7A
:105A4000090FEE0FE010E111F21212144315871640
:105A5000DE1749190000CB0095015E022503EB0318
:105A6000AE046E052B06E40698074808F30898096B
:105A7000370AD00A610BEC0B6F0CEB0C5E0DC90DF5
:105A80002C0E850ED60E1D0F5A0F8E0FB90FD90F83
:105A9000F00FFC0FFF0FF70FE60FCA0FA50F760FE1
:105AA0003D0FFA0EAF0E5A0EFC0D950D260DAE0CE5
:105AB0002F0CA80B190B840AE80946099E08F10768
:105AC0003F078806CD050E054D048803C202F90183
:105AD000300165009BFFD0FE07FE3EFD78FCB3FB66
