:020000040800F2
:10000000000001209D32000800000000AF510008F0
:1000100000000000BF510008CF51000800000000A0
:10002000000000000000000000000000E53C0008A7
:100030000000000000000000FD3C0008E151000845
:1000400000000000000000000000000000000000B0
:100050000000000000000000254900085149000888
:100060000000000000000000000000000000000090
:100070000000000000000000000000000000000080
:100080000000000000000000000000000000000070
:100090000000000000000000000000007D49000892
:1000A0000000000000000000000000000000000050
:1000B0000000000000000000000000001D4D0008CE
:1000C000594E0008000000000000000061350008E3
:1000D00000000000C145000881460008554700089F
:1000E000E9490008000000000000000000000000D6
:1000F0000000000000000000D53A000800000000E9
:1001000000000000000000000000000000000000EF
:1001100000000000000000000000000000000000DF
:100120000000000000000000C143000800000000C3
:100130004FF0FF0C1CEAD0521EBF1CEAD15392EACA
:100140000C0F93EA0C0F6FD01A4480EA010C4002A6
:1001500018BF5FEA41211ED04FF0006343EA501000
:1001600043EA5111A0FB01310CF00040B1F5000F42
:100170003EBF490041EAD3715B0040EA010062F1F1
:100180007F02FD2A1DD8B3F1004F40EBC25008BFDB
:1001900020F00100704790F0000F0CF0004C08BFF9
:1001A00049024CEA502040EA51207F3AC2BFD2F1C6
:1001B000FF0340EAC250704740F400004FF00003D4
:1001C000013A5DDC12F1190FDCBF00F0004070470E
:1001D000C2F10002410021FA02F1C2F1200200FA4C
:1001E00002FC5FEA310040F1000053EA4C0308BF13
:1001F00020EADC70704792F0000F00F0004C02BF64
:10020000400010F4000F013AF9D040EA0C0093F0DE
:10021000000F01F0004C02BF490011F4000F013B38
:10022000F9D041EA0C018FE70CEAD15392EA0C0FA6
:1002300018BF93EA0C0F0AD030F0004C18BF31F011
:10024000004CD8D180EA010000F00040704790F0E7
:10025000000F17BF90F0004F084691F0000F91F08B
:10026000004F14D092EA0C0F01D142020FD193EA51
:100270000C0F03D14B0218BF084608D180EA0100D9
:1002800000F0004040F0FE4040F40000704740F0B5
:10029000FE4040F44000704781F0004102E000BFA2
:1002A00083F0004330B54FEA41044FEA430594EA36
:1002B000050F08BF90EA020F1FBF54EA000C55EA71
:1002C000020C7FEA645C7FEA655C00F0E2804FEA42
:1002D0005454D4EB5555B8BF6D420CDD2C4480EA24
:1002E000020281EA030382EA000083EA010180EA54
:1002F000020281EA0303362D88BF30BD11F0004FA2
:100300004FEA01314FF4801C4CEA113102D04042D7
:1003100061EB410113F0004F4FEA03334CEA133312
:1003200002D0524263EB430394EA050F00F0A7802A
:10033000A4F10104D5F1200E0DDB02FA0EFC22FA25
:1003400005F2801841F1000103FA0EF2801843FA19
:1003500005F359410EE0A5F120050EF1200E012A0A
:1003600003FA0EFC28BF4CF0020C43FA05F3C01848
:1003700051EBE37101F0004507D54FF0000EDCF1C1
:10038000000C7EEB00006EEB0101B1F5801F1BD36A
:10039000B1F5001F0CD349085FEA30004FEA3C0C6E
:1003A00004F101044FEA445212F5800F80F09A8064
:1003B000BCF1004F08BF5FEA500C50F1000041EB68
:1003C000045141EA050130BD5FEA4C0C404141EB6C
:1003D0000101013C28BFB1F5801FE9D291F0000F67
:1003E00004BF01460020B1FA81F308BF2033A3F116
:1003F0000B03B3F120020CDA0C3208DD02F1140C0D
:10040000C2F10C0201FA0CF021FA02F10CE002F147
:100410001402D8BFC2F1200C01FA02F120FA0CFC40
:10042000DCBF41EA0C019040E41AA2BF01EB045189
:10043000294330BD6FEA04041F3C1CDA0C340EDC87
:1004400004F11404C4F1200220FA04F001FA02F3CA
:1004500040EA030021FA04F345EA030130BDC4F188
:100460000C04C4F1200220FA02F001FA04F340EA7D
:100470000300294630BD21FA04F0294630BD94F02E
:10048000000F83F4801306BF81F480110134013D15
:100490004EE77FEA645C18BF7FEA655C29D094EA86
:1004A000050F08BF90EA020F05D054EA000C04BF04
:1004B0001946104630BD91EA030F1EBF00210020EF
:1004C00030BD5FEA545C05D14000494128BF41F08E
:1004D000004130BD14F580043CBF01F5801130BDF2
:1004E00001F0004545F0FE4141F470014FF000007D
:1004F00030BD7FEA645C1ABF194610467FEA655C2E
:100500001CBF0B46024650EA013406BF52EA0335CF
:1005100091EA030F41F4002130BD00BF90F0000FBD
:1005200004BF0021704730B54FF4806404F13204F9
:100530004FF000054FF0000150E700BF90F0000FB2
:1005400004BF0021704730B54FF4806404F13204D9
:1005500010F0004548BF40424FF000013EE700BFA9
:1005600042004FEAE2014FEA31014FEA02701FBF39
:1005700012F07F4393F07F4F81F06051704732F06B
:100580007F4208BF704793F07F4F04BF41F40021C2
:10059000704730B54FF4607401F0004521F0004120
:1005A0001CE700BF50EA010208BF704730B54FF0AA
:1005B00000050AE050EA010208BF704730B511F0AB
:1005C000004502D5404261EB41014FF4806404F1E3
:1005D00032045FEA915C3FF4D8AE4FF003025FEA69
:1005E000DC0C18BF03325FEADC0C18BF033202EBED
:1005F000DC02C2F1200300FA03FC20FA02F001FA47
:1006000003FE40EA0E0021FA02F11444BDE600BFE9
:1006100070B54FF0FF0C4CF4E06C1CEA11541DBF98
:100620001CEA135594EA0C0F95EA0C0F00F0DEF863
:100630002C4481EA030621EA4C5123EA4C5350EA48
:10064000013518BF52EA033541F4801143F4801399
:1006500038D0A0FB02CE4FF00005E1FB02E506F02A
:100660000042E0FB03E54FF00006E1FB03569CF07F
:10067000000F18BF4EF0010EA4F1FF04B6F5007F85
:1006800064F5407404D25FEA4E0E6D4146EB0606F7
:1006900042EAC62141EA55514FEAC52040EA5E5080
:1006A0004FEACE2EB4F1FD0C88BFBCF5E06F1ED82A
:1006B000BEF1004F08BF5FEA500E50F1000041EB61
:1006C000045170BD06F0004646EA010140EA02000E
:1006D00081EA0301B4EB5C04C2BFD4EB0C0541EA30
:1006E000045170BD41F480114FF0000E013C00F345
:1006F000AB8014F1360FDEBF002001F0004170BD69
:10070000C4F10004203C35DA0C341BDC04F1140481
:10071000C4F1200500FA05F320FA04F001FA05F20D
:1007200040EA020001F0004221F0004110EBD370DA
:1007300021FA04F642EB06015EEA430E08BF20EA06
:10074000D37070BDC4F10C04C4F1200500FA04F3A9
:1007500020FA05F001FA04F240EA020001F000413B
:1007600010EBD37041F100015EEA430E08BF20EAAE
:10077000D37070BDC4F1200500FA05F24EEA020EF6
:1007800020FA04F301FA05F243EA020321FA04F025
:1007900001F0004121FA04F220EA020000EBD370DC
:1007A0005EEA430E08BF20EAD37070BD94F0000FDC
:1007B0000FD101F00046400041EB010111F4801F10
:1007C00008BF013CF7D041EA060195F0000F18BFC1
:1007D000704703F00046520043EB030313F4801FFD
:1007E00008BF013DF7D043EA0603704794EA0C0FB7
:1007F0000CEA135518BF95EA0C0F0CD050EA4106CD
:1008000018BF52EA4306D1D181EA030101F0004149
:100810004FF0000070BD50EA410606BF1046194671
:1008200052EA430619D094EA0C0F02D150EA01367D
:1008300013D195EA0C0F05D152EA03361CBF1046BE
:1008400019460AD181EA030101F0004141F0FE415D
:1008500041F470014FF0000070BD41F0FE4141F4E1
:10086000780170BD70B54FF0FF0C4CF4E06C1CEAE1
:1008700011541DBF1CEA135594EA0C0F95EA0C0F96
:1008800000F0A7F8A4EB050481EA030E52EA033551
:100890004FEA013100F088804FEA03334FF0805572
:1008A00045EA131343EA12634FEA022245EA11159F
:1008B00045EA10654FEA00260EF000419D4208BF50
:1008C000964244F1FD0404F5407402D25B084FEAFD
:1008D0003202B61A65EB03055B084FEA32024FF4A9
:1008E00080104FF4002CB6EB020E75EB030E22BF06
:1008F000B61A754640EA0C005B084FEA3202B6EBC6
:10090000020E75EB030E22BFB61A754640EA5C0074
:100910005B084FEA3202B6EB020E75EB030E22BF04
:10092000B61A754640EA9C005B084FEA3202B6EB05
:10093000020E75EB030E22BFB61A754640EADC00C4
:1009400055EA060E18D04FEA051545EA16754FEA26
:1009500006164FEAC30343EA52734FEAC2025FEA44
:100960001C1CC0D111F4801F0BD141EA00014FF0D3
:1009700000004FF0004CB6E711F4801F04BF0143A4
:100980000020B4F1FD0C88BFBCF5E06F3FF6AFAEC0
:10099000B5EB030C04BFB6EB020C5FEA500C50F150
:1009A000000041EB045170BD0EF0004E4EEA1131D3
:1009B00014EB5C04C2BFD4EB0C0541EA045170BDDA
:1009C00041F480114FF0000E013C90E645EA060E1E
:1009D0008DE60CEA135594EA0C0F08BF95EA0C0F4C
:1009E0003FF43BAF94EA0C0F0AD150EA01347FF494
:1009F00034AF95EA0C0F7FF425AF104619462CE76B
:100A000095EA0C0F06D152EA03353FF4FDAE1046CD
:100A1000194622E750EA410618BF52EA43067FF41E
:100A2000C5AE50EA41047FF40DAF52EA43057FF4AE
:100A3000EBAE12E74FF0FF3C06E000BF4FF0010CB9
:100A400002E000BF4FF0010C4DF804CD4FEA410C1D
:100A50007FEA6C5C4FEA430C18BF7FEA6C5C1BD0EA
:100A600001B050EA410C0CBF52EA430C91EA030F6B
:100A700002BF90EA020F0020704710F1000F91EAC8
:100A8000030F58BF994208BF90422CBFD8176FEA96
:100A9000E37040F0010070474FEA410C7FEA6C5C64
:100AA00002D150EA013C07D14FEA430C7FEA6C5C6B
:100AB000D6D152EA033CD3D05DF8040B704700BF97
:100AC0008446104662468C461946634600E000BFE5
:100AD00001B5FFF7B7FF002848BF10F1000F01BDB7
:100AE0004DF808EDFFF7F4FF0CBF012000205DF882
:100AF00008FB00BF4DF808EDFFF7EAFF34BF012007
:100B000000205DF808FB00BF4DF808EDFFF7E0FF9F
:100B100094BF012000205DF808FB00BF4DF808EDF0
:100B2000FFF7CEFF94BF012000205DF808FB00BF57
:100B30004DF808EDFFF7C4FF34BF012000205DF839
:100B400008FB00BF4FEA410212F5001215D211D581
:100B50006FF47873B3EB625212D94FEAC12343F0BA
:100B6000004343EA505311F0004F23FA02F018BF3C
:100B7000404270474FF00000704750EA013005D105
:100B800011F0004008BF6FF0004070474FF00000C8
:100B9000704700BF4FEA4102B2F1E04324BFB3F512
:100BA000001CDCF1FE5C0DD901F0004C4FEAC002E4
:100BB0004CEA5070B2F1004F40EB830008BF20F0C8
:100BC0000100704711F0804F21D113F13872BCBF82
:100BD00001F00040704741F480114FEA5252C2F1D7
:100BE0001802C2F1200C10FA0CF320FA02F018BF20
:100BF00040F001004FEAC1234FEAD32303FA0CFC73
:100C000040EA0C0023FA02F34FEA4303CCE77FEA01
:100C1000625307D150EA01331EBF4FF0FE4040F44B
:100C20004000704701F0004040F0FE4040F40000FA
:100C3000704700BF42000ED2B2F1FE4F0BD34FF00F
:100C40009E03B3EB126209D44FEA002343F0004342
:100C500023FA02F070474FF00000704712F1610F65
:100C600001D1420202D14FF0FF3070474FF0000037
:100C7000704700BF00B583B003468DF807309DF87C
:100C800007300A21184601F0FBFF00BF03B05DF8F2
:100C900004FB00B583B00190009101F05DFF0346B5
:100CA000002B12D001F050FF0346002B06D0019B11
:100CB00001221A70009B00221A700CE0019B002296
:100CC0001A70009B01221A7005E0019B00221A7025
:100CD000009B00221A7000BF03B05DF804FB000007
:100CE000064B5A790132D2B25A71044B5B79092B07
:100CF00002D9024B00225A7100BF704770030020D6
:100D000082B0019001994FF000024FF00003C1E959
:100D1000002300BF02B0704700B585B0CDE90201E5
:100D200001920093009B1B78002B0CD1009B0122A9
:100D30001A70069BD3E900230199C1E90023009BA7
:100D400001225A7039E0009B5B78012B26D14FF0CD
:100D500000024FF00003DDE90201FFF7C1FE034688
:100D6000002B00D029E0019BD3E900014FF00002E5
:100D70004FF00003FFF7B4FE0346002B03D04FF003
:100D80000002104B03E04FF000024FF00003019906
:100D9000C1E90023009B02225A700EE04FF00002CE
:100DA0004FF00003DDE90201FFF79AFE0346002B36
:100DB00000D102E0009B01225A7000BF05B05DF82F
:100DC00004FB00BF0000F03F30B585B0CDE9000165
:100DD000009C019B23F000454FF00002294B204668
:100DE0002946FFF787FE0346002B40D04FF0000254
:100DF000254BDDE90001FFF791FE0346002B0FD0E4
:100E00004FF00002204BDDE90001FFF74BFA0246EC
:100E10000B461046194604F07FFCCDE902012AE09A
:100E20004FF00002194BDDE90001FFF781FE034698
:100E3000002B0CD04FF000024FF00003DDE9000161
:100E4000FFF7E6FB02460B46CDE9022313E04FF025
:100E500000020D4BDDE90001FFF722FA02460B46C6
:100E60001046194604F0D8FBCDE9020103E0DDE9A4
:100E70000023CDE90223DDE902231046194605B01F
:100E800030BD00BF000030430000E03F0000E0BF85
:100E90002DE9F04F99B004220721012001F0A0FEB6
:100EA00003461846FFF73AFB02460B46A149C1E943
:100EB0000C2308220721012001F092FE0346184668
:100EC000FFF72CFB02460B46CDE914230222072133
:100ED000012001F085FE03461846FFF71FFB02467E
:100EE0000B46CDE9102301220721012001F078FEF5
:100EF00003461846FFF712FB02460B46CDE91223C4
:100F0000DDE9100101F054FC03468DF82B30DDE9DA
:100F10001023DDE91401FFF701FE0346002B03D186
:100F20009DF82B30002B04D0DDE91423CDE90C23F0
:100F300003E0DDE91023CDE90C23DDE9120101F026
:100F400037FC0346002B0CBF01230023DBB28DF8D6
:100F50002A3001231C46DDE91223DDE90C01FFF7ED
:100F6000DDFD0346002B01D100231C46E3B283F0D4
:100F70000103DBB2002B07D09DF82A30002B03D0F1
:100F8000DDE91223CDE90C236A4BD3E90C014FF0C4
:100F900000024FF00003FFF7A3FD0346002B01D131
:100FA000022400E0002401231D464FF000024FF010
:100FB0000003DDE90C01FFF793FD0346002B01D090
:100FC00000231D46EBB223445B005B4A92F850209D
:100FD00013445A4A134493F87822574B83F850200D
:100FE000544BD3E90C23DDE91001FFF78DFD0346D7
:100FF000002B03D19DF82B30002B05D04D4BD3E9AE
:101000000C23CDE90C2303E0DDE91023CDE90C230B
:1010100001231C46DDE91223DDE90C01FFF77EFD0B
:101020000346002B01D100231C46E3B283F00103E9
:10103000DBB2002B07D09DF82A30002B03D0DDE96E
:101040001223CDE90C234FF000024FF00003DDE93D
:101050001401FFF745FD0346002B01D1022400E0F7
:10106000002401231D464FF000024FF00003DDE98C
:101070000C01FFF735FD0346002B01D000231D4670
:10108000EBB223445B002C4A92F8512013442B4AC4
:10109000134493F88822284B83F85120254BD3E939
:1010A0000C23DDE91401FFF72FFD0346002B06D1C9
:1010B000DDE9140101F07CFB0346002B01D0012384
:1010C00000E000238DF829309DF82930002B05D051
:1010D000184BD3E90C23CDE90C2303E0DDE91423FD
:1010E000CDE90C2301231C46DDE91223DDE90C01C7
:1010F000FFF714FD0346002B01D100231C46E3B289
:1011000083F00103DBB2002B07D09DF82A30002BBF
:1011100003D0DDE91223CDE90C234FF000024FF09C
:101120000003DDE91001FFF7DBFC0346002B07D1CC
:10113000022406E0D802002018030020000000204E
:10114000002401231D464FF000024FF00003DDE9AB
:101150000C01FFF7C5FC0346002B01D000231D4600
:10116000EBB223445B00964A92F852201344954A0E
:10117000134493F89822924B83F852209DF829301B
:10118000002B04D0904BD3E90C23CDE91423DDE9E7
:101190001023DDE91401FFF7C1FC0346002B03D146
:1011A0009DF82B30002B03D0DDE91423CDE910236B
:1011B0004FF000024FF00003DDE91201FFF790FC51
:1011C0000346002B01D1022400E0002401231D4628
:1011D0004FF000024FF00003DDE91001FFF780FC43
:1011E0000346002B01D000231D46EBB223445B00D5
:1011F000734A92F853201344724A134493F8A82276
:101200006F4B83F853206E4B93F85030002B05D072
:101210006C4BD3E93C23CDE9102304E0694BD3E9BF
:101220005223CDE91023664B93F85130002B05D0A3
:10123000644BD3E93423CDE9142304E0614BD3E9B3
:101240005223CDE914235E4B93F85230002B05D086
:101250005C4BD3E93623CDE9122304E0594BD3E9A3
:101260005223CDE91223564B93F85330002B06D06E
:10127000544BD3E938235449C1E90C2305E0514BC1
:10128000D3E952235049C1E90C23DDE91423DDE9F8
:101290001001FFF743FC0346002B06D1DDE91401E2
:1012A00001F086FA0346002B03D0DDE91023CDE9D7
:1012B0001423DDE91223DDE91401FFF72FFC0346B7
:1012C000002B06D1DDE9120101F072FA0346002B72
:1012D00003D0DDE91423CDE912233B4BD3E90C23E2
:1012E000DDE91201FFF71AFC0346002B09D1364B4A
:1012F000D3E90C231046194601F05AFA0346002B95
:1013000004D03149DDE91223C1E90C232E4BD3E986
:101310000C012C4BD3E954230124FFF709FC0346AD
:10132000002B01D100231C46E3B283F00103DBB2A2
:10133000002B05D0234BD3E93A232349C1E90C23E1
:10134000214BD3E90C2310461946FFF7FBFB03465C
:10135000032B14D0032B19DC012B02D0022B07D056
:1013600014E04FF000024FF00003CDE9142313E026
:101370004FF000024FF00003CDE914230CE04FF0D2
:1013800000024FF00003CDE9142305E00D4BD3E933
:101390005623CDE9142300BF07A3D3E90023DDE9D9
:1013A0001401FFF7C5FB0346002B0FD002A3D3E9BE
:1013B0000023CDE9142318E00000000000C05F40C6
:1013C0001803002000000020D80200204FF0000287
:1013D000954BDDE91401FFF78DFB0346002B04D08C
:1013E0004FF00002904BCDE91423DDE91401FFF723
:1013F000EBFCCDE90E014FF000028C4BDDE90E0154
:10140000FFF778FB0346002B06D0DDE90E01FFF75E
:1014100099FB03460B9302E06FF000430B930B998B
:10142000082001F015FC824BD3E90C231046194625
:10143000FFF788FB0346032B14D0032B19DC012B89
:1014400002D0022B07D014E04FF000024FF000034F
:10145000CDE9142313E04FF000024FF00003CDE973
:1014600014230CE04FF000024FF00003CDE91423E9
:1014700005E0704BD3E95623CDE9142300BF68A3E0
:10148000D3E90023DDE91401FFF752FB0346002BEB
:1014900005D063A3D3E90023CDE914230EE04FF078
:1014A0000002614BDDE91401FFF724FB0346002B2A
:1014B00004D04FF000025C4BCDE91423DDE91401A8
:1014C000FFF782FCCDE90E014FF00002574BDDE93A
:1014D0000E01FFF70FFB0346002B06D0DDE90E01DE
:1014E000FFF730FB03460B9302E06FF000430B93D2
:1014F0000B99092001F0ACFB04220521012001F029
:101500006FFB03461846FFF709F802460B46CDE984
:10151000142301220521012001F062FB0346184635
:10152000FEF7FCFF02460B46CDE91023404BD3E902
:101530000C2310461946FFF705FB0346032B67D023
:10154000032B79DC012B02D0022B5AD074E0394BEB
:10155000D3E91023DDE91001FFF7EAFA0346002B77
:101560000CD0344BD3E90E01324BD3E90C23FFF7F7
:101570004FF802460B46CDE9122304E02D4BD3E988
:101580005C23CDE912232B4BD3E91223DDE91401AF
:10159000FFF7CEFA0346002B05D0264BD3E90A23EA
:1015A000CDE9102304E0234BD3E95C23CDE91023DC
:1015B000DDE91223DDE91001FFF7B0FA0346002B45
:1015C00006D1DDE9120101F0F3F80346002B03D048
:1015D000DDE91023CDE91223129E139B23F000476F
:1015E000144BD3E9142330463946FFF7A1FA0346DA
:1015F000002B00D126E00F4BD3E95823CDE912236D
:1016000020E04FF000024FF00003CDE9122319E073
:101610004FF000024FF00003CDE9122312E000BFAB
:101620000000000000C05F40000060C00000E0411A
:10163000D802002000000020974BD3E95623CDE9C3
:10164000122300BF954BD3E90601934BD3E93E2308
:10165000FFF746FA0346002B0CD1904B1B69012B78
:1016600002D18E4B01221A758B4BD3E93E238B4955
:10167000C1E90623894B1B7D002B02D0874B00223A
:101680001A7583A3D3E90023DDE91201FFF750FAAD
:101690000346002B05D07EA3D3E90023CDE9122316
:1016A0000EE04FF000027E4BDDE91201FFF722FA57
:1016B0000346002B04D04FF00002794BCDE91223F2
:1016C000DDE91201FFF780FBCDE90E014FF00002CA
:1016D000744BDDE90E01FFF70DFA0346002B06D02F
:1016E000DDE90E01FFF72EFA03460B9302E06FF0DF
:1016F00000430B930B99042001F0AAFA042206215F
:10170000012001F06DFA03461846FEF707FF024676
:101710000B46CDE9142301220621012001F060FAD5
:1017200003461846FEF7FAFE02460B46CDE91023A3
:101730005D4BD3E90C2310461946FFF703FA034625
:10174000032B69D0032B6EDC012B02D0022B5CD063
:1017500069E0514BD3E91C23DDE91001FFF7E8F9FB
:101760000346002B0CD04C4BD3E91A014A4BD3E96A
:101770001823FEF74DFF02460B46CDE9122304E085
:10178000454BD3E95C23CDE91223434BD3E91E2318
:10179000DDE91401FFF7CCF90346002B05D03E4BE1
:1017A000D3E91623CDE9102304E03B4BD3E95C23B6
:1017B000CDE91023DDE91223DDE91001FFF7AEF9D1
:1017C0000346002B06D1DDE9120100F0F1FF0346CC
:1017D000002B03D0DDE91023CDE91223129B0293E5
:1017E000139B23F0004303932B4BD3E92023DDE924
:1017F0000201FFF79DF90346002B00D119E0264BAB
:10180000D3E95823CDE9122313E04FF000024FF043
:101810000003CDE912230CE04FF000024FF000036B
:10182000CDE9122305E01C4BD3E95623CDE9122361
:1018300000BF1A4BD3E90201174BD3E94023FFF74E
:101840004FF90346002B0CD1144B1B68012B02D11E
:10185000124B01221A71104BD3E940230F49C1E901
:1018600002230E4B1B79002B02D00C4B00221A7165
:1018700007A3D3E90023DDE91201FFF759F9034675
:10188000002B13D002A3D3E90023CDE912231CE0DF
:101890000000000000C05F4000000020180300208E
:1018A000000060C00000E041D80200204FF00002BC
:1018B0009B4BDDE91201FFF71DF90346002B04D015
:1018C0004FF00002964BCDE91223DDE91201FFF73C
:1018D0007BFACDE90E014FF00002924BDDE90E01DB
:1018E000FFF708F90346002B06D0DDE90E01FFF7EC
:1018F00029F903460B9302E06FF000430B930B9919
:10190000052001F0A5F901220821012001F068F964
:1019100003461846FEF702FE02460B46CDE91023A9
:1019200004220821012001F05BF903461846FEF766
:10193000F5FD02460B46CDE914237B4BD3E9682322
:10194000DDE91001FFF7F4F80346002B05D0764BD4
:10195000D3E93023CDE9102304E0734BD3E96623A8
:10196000CDE91023704BD3E96C23DDE91401FFF7B7
:10197000DFF80346002B05D06B4BD3E93223CDE9CA
:10198000142304E0684BD3E96623CDE91423DDE991
:101990001423DDE91001FFF7C1F80346002B06D13F
:1019A000DDE9140100F004FF0346002B03D0DDE95C
:1019B0001023CDE91423149B0493159B23F00043BB
:1019C0000593594BD3E96E23DDE90401FFF7B0F825
:1019D0000346002B04D0544BD3E92E23CDE9142326
:1019E000149B0693159B23F0004307934E4BD3E9BA
:1019F0007223DDE90601FFF79BF80346002B04D0B4
:101A00004A49DDE91423C1E91023494BD3E90C23EA
:101A100010461946FFF796F80346032B13D0032B05
:101A200018DC012B02D0022B06D013E03F4BD3E988
:101A30001023CDE9142313E04FF000024FF0000310
:101A4000CDE914230CE04FF000024FF00003CDE984
:101A5000142305E0344BD3E95623CDE9142300BF0A
:101A60002DA3D3E90023DDE91401FFF761F8034654
:101A7000002B05D028A3D3E90023CDE914230EE0E1
:101A80004FF00002264BDDE91401FFF733F803465F
:101A9000002B04D04FF00002214BCDE91423DDE9E7
:101AA0001401FFF791F9CDE90E014FF000021D4B33
:101AB000DDE90E01FFF71EF80346002B06D0DDE935
:101AC0000E01FFF73FF803460B9302E06FF000436F
:101AD0000B930B99062001F0BBF8154BD3E90C23AF
:101AE00010461946FFF72EF80346032B22D0032B8E
:101AF00027DC012B02D0022B07D022E04FF000029E
:101B00004FF00003CDE9142321E04FF000024FF025
:101B10000003CDE914231AE00000000000C05F407C
:101B2000000060C00000E041000000201803002019
:101B3000D80200204FF000024FF00003CDE914233B
:101B400005E0874BD3E95623CDE9142300BF82A3D8
:101B5000D3E90023DDE91401FEF7EAFF0346002B79
:101B600005D07DA3D3E90023CDE914230EE04FF087
:101B700000027C4BDDE91401FEF7BCFF0346002B9D
:101B800004D04FF00002774BCDE91423DDE91401B6
:101B9000FFF71AF9CDE90E014FF00002724BDDE9B3
:101BA0000E01FEF7A7FF0346002B06D0DDE90E016C
:101BB000FEF7C8FF03460B9302E06FF000430B9360
:101BC0000B99072001F044F8684B5B79002B71D129
:101BD000012000F08DFF03461846FEF79FFC0246E9
:101BE0000B466349C1E90823022000F081FF034648
:101BF0001846FEF793FC02460B465D49C1E90623F1
:101C0000032000F075FF03461846FEF787FC0246E6
:101C10000B465749C1E90423554BD3E90801544BFE
:101C2000D3E90623FEF73EFB02460B461046194653
:101C30004F4BD3E90423FEF735FB02460B46CDE9B3
:101C40001423474BD3E98223DDE91401FEF770FF2B
:101C50000346002B05D0424B93F8B8328DF82B3059
:101C600004E03F4B93F8B9328DF82B303C4BD3E96D
:101C70008423DDE91401FEF751FF0346002B05D054
:101C8000374B93F8B8328DF82A3004E0344B93F890
:101C9000B9328DF82A309DF82B30002B05D19DF8F4
:101CA0002A30002B01D0012300E00023DAB2304BB0
:101CB00083F838202E4BD3E90C01294BD3E97A2342
:101CC000FEF7EEFA02460B46CDE91223244BD3E988
:101CD0008623DDE91201FEF72BFF0346002B05D01A
:101CE0001F4B93F8BA328DF82B3004E01C4B93F85D
:101CF000BB328DF82B301A4BD3E98823DDE9120172
:101D0000FEF70CFF0346002B05D0154B93F8BA32B3
:101D10008DF82A3004E0124B93F8BB328DF82A304C
:101D2000134B93F83830002B26D09DF82B30002B26
:101D300022D19DF82A30002B1ED00E4BD3E9120180
:101D4000074BD3E90223FEF7ADFA02460B460949D9
:101D5000C1E9122316E000BF0000000000C05F4090
:101D600000000020000060C00000E041700300207F
:101D7000D8020020180300209D4BD3E904239D497D
:101D8000C1E912234FF000024FF00003CDE9142304
:101D90004FF000024FF00003CDE910234FF0000296
:101DA0004FF00003DDE91201FEF79AFE0346002B17
:101DB00000F09781904BD3E904014FF000028F4B64
:101DC000FEF78EFE0346002B21D08B4BD3E9060194
:101DD0004FF000024FF00003FEF782FE0346002B97
:101DE00015D0854BD3E908014FF00002834BFEF775
:101DF00077FE0346002B0AD07D4BD3E98023CDE943
:101E000014237B4BD3E98023CDE9102369E17A4B7E
:101E1000D3E904014FF00002784BFEF761FE034660
:101E2000002B2AD0744BD3E906014FF000024FF08B
:101E30000003FEF755FE0346002B1ED06E4BD3E980
:101E400008014FF000024FF00003FEF749FE034681
:101E5000002B12D0664BD3E97C014FF000024FF00B
:101E60008043FEF7FFFC02460B46CDE91423604B8E
:101E7000D3E97C23CDE9102333E15F4BD3E904019F
:101E80004FF000025D4BFEF72BFE0346002B36D0D1
:101E9000594BD3E906014FF00002584BFEF720FEE4
:101EA0000346002B2BD0544BD3E908014FF000021E
:101EB0004FF00003FEF714FE0346002B1FD04C4BDF
:101EC000D3E97C23924683F0004B4FF000024FF0A1
:101ED000804350465946FEF7C5FC02460B46CDE905
:101EE0001423434BD3E97C014FF000024FF08043B1
:101EF000FEF7B8FC02460B46CDE91023F1E03E4B5D
:101F0000D3E904014FF000024FF00003FEF7E8FDB3
:101F10000346002B29D0384BD3E906014FF00002CD
:101F20004FF00003FEF7DCFD0346002B1DD0324BC3
:101F3000D3E908014FF00002304BFEF7D1FD034614
:101F4000002B12D02A4BD3E97C23CDE91423284B54
:101F5000D3E97C014FF000024FF08043FEF782FC92
:101F600002460B46CDE91023BBE0234BD3E9040125
:101F70004FF000024FF00003FEF7B2FD0346002BC6
:101F80003ED01D4BD3E906014FF000021B4BFEF77C
:101F9000A7FD0346002B33D0174BD3E908014FF0C0
:101FA0000002164BFEF79CFD0346002B28D0104B79
:101FB000D3E97C014FF000024FF08043FEF752FC62
:101FC00002460B46CDE91423094BD3E97C23904606
:101FD00083F000494FF000024FF0804340464946ED
:101FE000FEF740FC02460B46CDE9102379E000BF26
:101FF0000000002018030020D80200200000F03F5D
:10200000934BD3E912014FF00002924BFEF772FDA1
:102010000346002B0DD0904BD3E97E23CDE910234E
:102020008D4BD3E97E231146149183F00043159321
:1020300057E0874BD3E912014FF00002854BFEF7C2
:102040006DFD0346002B18D0814BD3E912017EA30E
:10205000D3E90023FEF74EFD0346002B0DD07E4B47
:10206000D3E97E231146109183F0004311937A4BFC
:10207000D3E97E23CDE9142333E0754BD3E9120174
:1020800071A3D3E90023FEF749FD0346002B18D0C6
:102090006F4BD3E912014FF00002704BFEF72AFD9F
:1020A0000346002B0DD06C4BD3E97E23CDE91023E2
:1020B000694BD3E97E231146149183F000431593B5
:1020C0000FE0654BD3E97E231146109183F0004366
:1020D0001193614BD3E97E231146149183F00043A1
:1020E000159302220821012000F07AFD03461846CC
:1020F000FEF714FA02460B46CDE90E23584B009327
:10210000584B594ADDE90E01FEF706FE564BD3E95E
:102110000001514BD3E98E23FEF70AFD0346002B45
:1021200005D04D4BD3E94623CDE9122304E04A4BB9
:10213000D3E94823CDE912230221012000F024FD38
:1021400003461846FEF7FAF902460B46CDE90C2382
:1021500008220821012000F043FD03461846FEF73F
:10216000DDF902460B46CDE90E23404B0093404B70
:10217000404ADDE90E01FEF7CFFD3B4BD3E90201FA
:10218000354BD3E99423FEF7D3FC0346002B05D04F
:10219000314BD3E94223CDE9162304E02E4BD3E99A
:1021A0004423CDE916230321012000F0EDFC034672
:1021B0001846FEF7C3F902460B462B49C1E90A232C
:1021C000294BD3E90C2310461946FEF7BBFC034606
:1021D000032B51D0032B31DC012B02D0022B26D054
:1021E0002CE01D4BD3E90823DDE91601FEF7A0FC26
:1021F0000346002B0CD0184BD3E906011A4BD3E948
:102200000A23FEF705FA02460B46CDE90E2303E04A
:10221000DDE90C23CDE90E23DDE91223DDE90E0112
:10222000FEF7F6F902460B46CDE9142325E04FF000
:1022300000024FF00003CDE914231EE0064BD3E962
:102240005623CDE9142318E00000000000C05240DE
:102250001803002000003940000000200000594011
:10226000C00200206C030020D8020020C802002019
:102270006E030020E002002000BF974BD3E99823B3
:10228000DDE91401FEF7C4F902460B46CDE914233B
:10229000924BD3E90A01904BD3E92C23FEF720FCA3
:1022A0000346002B0DD18D4B1B6A012B03D18B4BA9
:1022B000012283F82420884BD3E92C238749C1E9E4
:1022C0000A23864B93F82430002B03D0834B002243
:1022D00083F824207EA3D3E90023DDE91401FEF76F
:1022E00027FC0346002B05D079A3D3E90023CDE9D1
:1022F00014230EE04FF00002794BDDE91401FEF7E4
:10230000F9FB0346002B04D04FF00002744BCDE9DB
:102310001423DDE91401FEF757FDCDE90E014FF05E
:102320000002704BDDE90E01FEF7E4FB0346002BD3
:1023300006D0DDE90E01FEF705FC03460B9302E033
:102340006FF000430B930B99032000F081FC664B68
:10235000D3E90C2310461946FEF7F4FB0346032B82
:1023600038D0032B42DC012B02D0022B2BD03DE0D6
:10237000594BD3E92423DDE91601FEF7D9FB0346C7
:10238000002B0BD0544BD3E92201DDE90C23FEF7DF
:102390003FF902460B465449C1E90A23524BD3E99F
:1023A0000A01DDE91223FEF733F902460B46104617
:1023B0001946494BD3E92623FEF72AF902460B4674
:1023C000CDE9142318E04FF000024FF00003CDE9EF
:1023D000142311E0404BD3E92823DDE91001FEF777
:1023E00017F902460B46CDE9142305E03A4BD3E931
:1023F0005623CDE9142300BF374BD3E99A01DDE919
:102400001423FEF705F902460B463749C1E90C23B0
:10241000324BD3E90E01304BD3E92A23FEF760FBA0
:102420000346002B0DD12D4B1B6B012B03D12B4BE6
:10243000012283F83420284BD3E92A232749C1E914
:102440000E23264B93F83430002B03D0234B00226D
:1024500083F83420244BD3E90C011DA3D3E90023D6
:10246000FEF766FB0346002B06D01F4918A3D3E9ED
:102470000023C1E90C2310E01B4BD3E90C014FF002
:102480000002174BFEF736FB0346002B05D016491A
:102490004FF00002124BC1E90C23134BD3E90C237C
:1024A00010461946FEF790FCCDE90E014FF00002F0
:1024B0000C4BDDE90E01FEF71DFB0346002B15D08A
:1024C000DDE90E01FEF73EFB03460B9311E000BF72
:1024D0000000000000C05F40000000201803002042
:1024E000000060C00000E041D80200206FF000430F
:1024F0000B930B99022000F0ABFB0DF127020AAB06
:1025000011461846FEF7C5FB0121012000F03CFBF7
:102510000421012000F038FBFEF7E2FB00BF19B0F8
:10252000BDE8F08F08B5082000F00AF9314B1A78A1
:10253000314B83F850202F4B5A782F4B83F8512082
:102540002C4B9A782C4B83F852202A4BDA782A4B62
:1025500083F85320274BD3E970232749C1E910237F
:10256000244BD3E98A232449C1E912232348FEF7E7
:10257000C7FB2348FEF7C4FB1E4BD3E93E231E498D
:10258000C1E906231C4B01221A611B4B00221A755C
:10259000184BD3E940231849C1E90223164B012205
:1025A0001A60154B00221A710120FEF763FB02200E
:1025B000FEF760FB0320FEF75DFB0E4BD3E92C23F7
:1025C0000D49C1E90A230C4B01221A620A4B002271
:1025D00083F82420074BD3E92A230749C1E90E23B6
:1025E000054B01221A63044B002283F8342000BFFC
:1025F00008BD00BF0000002018030020D802002002
:10260000E002002000BF704700B587B0402303936D
:102610004FF000024FF00003CDE90423039B202B71
:102620000AD100F01BF803461846FDF799FF024651
:102630000B46CDE9042307E0074B019300230093E9
:10264000DDE90023CDE90423DDE904231046194622
:1026500007B05DF804FB00BF0000F07F82B04FF0D0
:10266000FF430193019B184602B0704700B587B045
:10267000402303934FF000024FF00003CDE9042301
:10268000039B202B0AD100F01BF803461846FDF7E8
:1026900067FF02460B46CDE9042307E0074B019391
:1026A00000230093DDE90023CDE90423DDE90423C1
:1026B0001046194607B05DF804FB00BF0000F0FFAC
:1026C00082B0034B0193019B184602B0704700BFD4
:1026D000000080FF00B587B0402303934FF0000255
:1026E0004FF00003CDE90423039B202B0AD100F017
:1026F0001BF803461846FDF733FF02460B46CDE9AB
:10270000042307E0074B019300230093DDE9002336
:10271000CDE90423DDE904231046194607B05DF82E
:1027200004FB00BF0000F8FF82B04FF000030193EC
:10273000024B0193019B184602B070470000C0FF96
:1027400000B583B00190FFF7C5FF02460B46124962
:10275000C1E90023FFF7E8FF0346104A1360FFF7C3
:1027600053FF02460B460E49C1E90023FFF776FFEF
:1027700003460C4A1360FFF779FF02460B460A49ED
:10278000C1E90023FFF79CFF0346084A136000BF1E
:1027900003B05DF804FB00BF88030020980300200D
:1027A0007803002090030020800300209403002081
:1027B00000B587B0CDE9000100238DF81730402324
:1027C0000493049B202B0BD1DDE90001FEF7E2F915
:1027D0000346184600F024F803468DF8173016E03B
:1027E000DDE90023CDE90223039A0C4B13400B4A89
:1027F000934209D1039BC3F31303002B02D1029B25
:10280000002B01D0012300E000238DF817309DF844
:102810001730184607B05DF804FB00BF0000F07FDA
:1028200084B00190019B0393039B03F0FF43B3F13A
:10283000FF4F06D1039BC3F31603002B01D00123E6
:1028400000E00023DBB2184604B0704700BF7047B9
:1028500000B583B0019000F02FF900BF03B05DF820
:1028600004FB00BF7047000008B5022300224FF4AC
:102870000071024801F0B0FA00BF08BD51280008FD
:1028800008B50F4B1B680F4A136000F065F903464B
:10289000002B0BD000F058F90346002B03D0084B57
:1028A00001221A6002E0064B00221A60044B1A68EB
:1028B000044B1B689A4201D000F0DFF900BF08BD4D
:1028C0009C030020A003002000B585B00190019B6F
:1028D0001B68039300F0BAF903460A4A13600A48DA
:1028E00000F07BF8FFF7CCFF08490398FDF720FCC8
:1028F00003461846FEF79EF903461946014800F0C4
:1029000033F8ECE7A4030020B003002000007A4471
:1029100000B585B001900091052303930E4800F0A7
:102920002FF80D4800F048F80C4800F029F80B4843
:1029300000F042F8039B00224FF48861084800F041
:102940002BF801AA039B4FF48861064800F024F895
:1029500000BF05B05DF804FBB0030020AC0300200D
:10296000F9290008C928000800B583B0019000913A
:102970000099019801F01CFC00BF03B05DF804FB56
:1029800000B583B0019000F074FC0246019B1A6010
:1029900000BF03B05DF804FB00B585B00390029161
:1029A00001920093009B019A0299039801F014FA96
:1029B00000BF05B05DF804FB00B585B00190019B38
:1029C0001B684FF0FF31184600F063FC0346039389
:1029D000039B184605B05DF804FB00B585B0019077
:1029E000019B1B68184600F03FFC03460393039BC2
:1029F000184605B05DF804FB00B583B001901D4B8F
:102A00001B681B68002B0CBF01230023DBB21A4696
:102A1000194B1A701AE01948FFF7CEFFFEF738FA83
:102A2000144B1B681B68002B14BF01230023DBB26F
:102A30001A46134B1A70124B1B78DBB2002B0CBFDB
:102A400001230023DBB21A460B4B1A700A4B1B788A
:102A5000DBB2002BDFD1084B00221A70019800F086
:102A600011F8002001F05EFA0023184603B05DF86B
:102A700004FB00BF20580008D0020020B003002053
:102A8000A803002000B583B00190084B01221A6012
:102A9000074B00221A70FFF7B5FD0648FFF79DFFB0
:102AA0000023184603B05DF804FB00BFC0030020FC
:102AB000D0020020AC03002000B583B0019000914B
:102AC000084B1B6800221A60FFF72CFD0021064806
:102AD000FFF71EFF0548FFF76FFF0023184603B0FE
:102AE0005DF804FB205800080AD7A33CAC03002083
:102AF0001A280CD8074B084A53F82030105C9B6802
:102B000000F00F0023FA00F000F0010070470020F1
:102B1000704700BF24580008905800081A280DD8A4
:102B2000074A084B125C53F8203002F00F020120D4
:102B300000FA02F209B11A6170475A61704700BF8A
:102B40009058000824580008024B1888C0F38000F1
:102B5000704700BF40090020064B188880B200F083
:102B600002039BB223B980F00800C0F3C000704795
:102B70000120704740090020024B1888C0F3C000B4
:102B8000704700BF4009002038B504460D46FFF7E6
:102B9000F3FFC0B90623691E91FBF3F203FB121188
:102BA000013C0C23C9B204F0010403FB04140B4BD9
:102BB00001391C19A079FF2808BFFE207F380129A0
:102BC000C0B207D804E0FFF7BFFF0028E2D003E05F
:102BD0004042C0B240B238BD002038BD20090020BC
:102BE00070B505460E461446FFF7C6FF78B9711F4B
:102BF000013D154B01F003010C2005F001050129F1
:102C000000FB05300AD007D3022913D10FE0FFF7EC
:102C10009BFF0028EBD015E0C17901E0C17989085C
:102C200001F0020301F0010141EA430305E0037AE8
:102C30001B0902E0037A03F00F0323420CBF0020BC
:102C4000012070BD002070BD2609002000F07EBF6D
:102C500038B505460C46FFF77FFF68B114F17F01D8
:102C600003D4FF29A8BFFF2100E000212846C9B2F4
:102C7000BDE8384000F03ABA38BD00F0C7BA0000ED
:102C80001A2803460A4606D8034951F8200003498A
:102C9000C95C00F0C3B87047245800089058000879
:102CA0008900C9B210B50F2404FA01F402FA01F246
:102CB000036823EA04031343036010BD72B60C4B90
:102CC0001A6801321A600B4A936811460A4A43F0A7
:102CD0000103106843F4A00340F001001060044AAF
:102CE0008B601368013B136003B962B6704700BF85
:102CF0008404002000240140080002400FB47FB586
:102D00000898431E0F2B2DD872B6184A1B05116860
:102D1000019301311160164A002309AC0293039319
:102D200003A9506000941A4654F8225005F01F057C
:102D300005FA03F60D68053335431D2B0D6001D9E7
:102D40000439002301328242EED10A4B019ADA6241
:102D5000029A1A63039A5A63044A1368013B136088
:102D600003B962B6BDE87F4004B070478404002018
:102D700008000240002401402DE9F84F05460C46AA
:102D8000904602F00D0772B6234B00261A685FFAD0
:102D900087FB01321A6008F0020A4FF00109E207CE
:102DA0000ED52846F1B25A46FFF77AFF082F07D111
:102DB00009FA06F3BAF1000F01D02B6100E06B6154
:102DC00001366408082EEAD1002605F104095FFAED
:102DD00087FA08F00208E30711D54846F1B25246D7
:102DE000FFF75EFF082F0AD1012106F1080301FA5F
:102DF00003F3B8F1000F01D02B6100E06B610136E5
:102E00006408082EE7D1044A1368013B136003B934
:102E100062B6BDE8F88F00BF84040020F8B505460F
:102E2000164672B6124B01F00F041A6806F00D0731
:102E30000132072C1A60FAB204D9A4F10801043057
:102E4000C9B200E02146FFF72BFF082F08D14FF051
:102E5000010303FA04F416F0020F14BF2C616C6135
:102E6000034A1368013B136003B962B6F8BD00BFA3
:102E700084040020264B20F003001B68002230B59C
:102E8000011D1446184612E005688D4206D14368BC
:102E90000CB1636025E01E4A136022E005D91AB127
:102EA000AA4228BF2A4600E02A4604464068002875
:102EB000EAD1E2B1541A072C98BF114615E01C68FC
:102EC000944210D1914207D15A6808B1426001E0A2
:102ED0000F490A60181D30BD521A99509818043ACB
:102EE0001A60043030BD18465B68002BE7D1094BEF
:102EF000094A1868904208D2121A8A4205D30A1D5C
:102F000082181A6040F8041B30BD002030BD00BF9D
:102F1000C4030020F408002000FF002070B5002842
:102F20004BD0264A00211368041F01604BB950F8AA
:102F3000043CC018224B1968814200D115E014608E
:102F400070BD1A4600E02A46A24210D350F8045C35
:102F500002604619964206D116685268AD190435CA
:102F600040F8045C026031B9144B1C6070BD5568B8
:102F70001146002DE7D10A4652F8045B4C60521905
:102F8000944206D150F8042CAA1804320A60026850
:102F90004A60002201E01A460B4659680029FAD11E
:102FA00018681D1D2D1806480468AC4205D112B9D9
:102FB00002490A6000E05160036070BDC403002054
:102FC000F408002010B572B6054C23680133236065
:102FD000FFF7A4FF2368013B236003B962B610BD6D
:102FE0008404002010B572B6054C236801332360B9
:102FF000FFF740FF2368013B236003B962B610BDB1
:1030000084040020124B4FF000011878114A8028E8
:10301000114B08D9998680381021516180B208215E
:10302000116118870FE07E2809D81987C0F17F0049
:103030000821516180B210211161988603E09986C0
:10304000198718235361044B46F668021A837047A8
:10305000C80300200014014000080040154B4FF049
:1030600000015878144A8028144B0AD9998780386F
:103070004FF48071516180B280211161A3F840004A
:1030800013E07E280BD8A3F84010C0F17F00802108
:10309000516180B24FF480711161988705E0998782
:1030A000A3F840104FF4C0735361044B46F6680216
:1030B0009A837047C80300200014014000080040B4
:1030C00038B5094B5C881D46A4B214F0010F01D03D
:1030D000FFF798FF04F00204A4B20CB1FFF7BEFFA3
:1030E00000236B8038BD00BFC8030020013810B535
:1030F00036D172B6404B1A6801321A603F4B1A78CB
:103100005C881970E307D0B267D40B0601D57E281E
:1031100004D97E2921D852B2002A1EDA384B002267
:103120009A861A87374A1821516144F648021A8351
:1031300003F596339A8C02F5B47292B21A8741F66F
:10314000FB621A829A8992B242F004029A812B4B56
:103150005A8892B242F001023BE0FFF753FF3CE095
:10316000092841D172B6244B1A6801321A60234BE8
:103170005A785C88597004F002039BB2D0B263BBEA
:103180000B0601D57E2804D97E2924D852B2002A04
:1031900021DA1B4B00229A87A3F84020194A4FF4EA
:1031A000C071516144F648029A8303F596339A8CB4
:1031B00002F5B47292B21A8741F6FB621A829A89BA
:1031C00092B242F004029A810C4B5A8892B242F0B9
:1031D00002025A8001E0FFF741FF074A1368013BF2
:1031E000136043B962B610BD082804D80138064BF5
:1031F000C0B21818817110BD84040020C8030020DB
:1032000000080040001401400009002072B6124975
:103210004FF4CC720B68114801330B60104B5A61AC
:103220000022A3F586339A861A879A87A3F840204E
:103230007F234370037042800A4A9371D3711372E3
:1032400053729372D372137353730B68013B0B6009
:1032500003B962B6704700BF84040020C803002091
:10326000001401400009002000210A460B4602F02C
:10327000D1B810B50120002102F098F8044608B139
:10328000FFF7F2FF204610BD0A4600210B4602F070
:103290009BB90A4600210B4602F020B90D4A0E4B9D
:1032A0000E4900F004B852F8040B43F8040B8B42AB
:1032B000FFF4F9AF0A4B0B4A4FF0000100F002B8DF
:1032C00043F8041B9342FFF4FBAF0748074908602B
:1032D00001F0C4BFE85B000800000020D402002019
:1032E000D8020020C4120020C8120020F4080020D8
:1032F00038B5444A444990890B78444A80B222F850
:1033000013000133DBB242480B7001210F2B016126
:1033100012D813F0030F3F4B41F6FD62998C01D098
:10332000083100E0493189B299861A829A8992B2AD
:1033300042F002029A8138BD10884CF6171380B211
:1033400098425AD1907800F00204E4B2F4B110F03F
:103350000102314B0ED003229A7000225A717F2253
:103360009A71DA711A725A729A72DA721A735A73FD
:10337000002440E002219970284C55215971105DBC
:1033800099180132082A8871F9D1F1E700F0040593
:10339000EDB21DB1204B08229A702CE00828E7D12D
:1033A0001D4B9870D378DCB204F00802D2B262B13F
:1033B00004F04004E4B25BB2002C14BF0D240924D5
:1033C000002B03DB44F0020400E00C460E4B5A884D
:1033D00092B2944202D05C8001F030FE0B4B1B791C
:1033E000202B094B9A8803D83F2A04D8013201E0E8
:1033F0000AB1013A9A800A4B1C80034B00221A70D2
:1034000038BD00BF00300140CC030020200900205F
:10341000001801400034014000090020F808002095
:1034200040090020084B1B78042B03D1074A4FF4B6
:1034300000615161064A01215161064A32F81320A8
:10344000054B92B29A817047CC03002000080140DE
:103450000018014000090020003001402C4A0123DF
:1034600010B513612B4B002199712B4B99899989C8
:10347000998999899989998999899B8901E030BFAE
:1034800000BF93681B07FAD4936813F01003F6D1BA
:10349000224A234913801F4A184653809380137091
:1034A000012221F812000132102A1D4BF9D14CF6ED
:1034B00017121A8002229A70012283F82020194CD8
:1034C0007F229A710021DA711A725A729A72DA7234
:1034D0001A735A736018013106298271114B827474
:1034E000F8D100225A739A735A769A760E4B50226C
:1034F0001A7052225A704F229A705322DA70202288
:103500001A715A719A71DA71034B40229A8010BD78
:1035100000180140CC030020003001404009002089
:103520000009002020090020F808002008B5094AF9
:1035300001E030BF00BF1388D907FAD5322001F06F
:1035400069FE054801F0F6FE0448BDE8084001F0B8
:10355000F1BE00BF40090020605A0008E45A00088C
:10356000074B684620F007011B898D4601B5D80737
:1035700001D5FFF7BDFEBDE801408546704700BF9D
:1035800000300140164B9B88202B03D8144B1A782F
:103590005AB122E0134B7F229A71DA711A725A7271
:1035A0009A72DA721A735A73F0E799790D4A82F8AF
:1035B0002110013199710C4B198901F0020189B276
:1035C00069B10A494FF400600861012001F580519A
:1035D0004861128892B29A817047FFF789BE70479E
:1035E000CC03002000090020003001400008014009
:1035F000BA4B4FF41F02F0B59A60B94A002111612D
:103600001A6887B022F4802242F480321A605A6825
:1036100022F003025A601968B04A8903FBD5B14B06
:10362000196821F0030141F012011960AE4B53609B
:10363000136843F080731360136813F0007FA74B87
:10364000FAD05A6842F002025A605F68A34C07F051
:103650000C07082FF9D1A54B00251D60A36943F085
:103660007D03A361E36843F07D02E260BFF34F8F07
:103670001F21E3602A469E48FFF77EFB09229C48F3
:103680004FF42871FFF778FB0A2104229848FFF7CE
:10369000C5FB984E0B2101229548FFF7BFFB0A227C
:1036A00093484FF24011FFF767FB3046394601223D
:1036B000FFF7B4FB304609210122FFF7AFFB4FF4BF
:1036C000807333614FF40073336130460A224FF642
:1036D000FF41FFF751FB0F212A468748FFF74CFBBC
:1036E0000A2109228448FFF799FB0B210422824812
:1036F000FFF794FB3A4680484FF46041FFF73CFBEC
:103700000A227D4841F2F031FFF736FBFFF77EFDDC
:103710007A4805210922FFF781FB06210422774818
:10372000FFF77CFB012275484FF4CC71FFF724FBB7
:10373000092272484FF47041FFF71EFB0A226F48BE
:1037400040F60761FFF718FB612101226C48FFF783
:1037500013FB0A226A484FF69E71FFF70DFB694B77
:1037600041F2DA025A60684A3321DD611560556022
:1037700099604FF40851D96044F244411961A1F5B0
:1037800080415961614BD56095605361A36943F4F1
:103790008053A361E36843F48052E260BFF34F8F2C
:1037A000E3605B4B40F665321A809D8001F090F833
:1037B000A36943F48043A361E36943F4C023E36155
:1037C000E36843F48042E260BFF34F8FE360236914
:1037D00043F4C0222261BFF34F8F23614D4B40F26F
:1037E00039129D81A3F80C5403F574431A8142F2F7
:1037F0002C029A8101F060FAE36943F40013E3615B
:10380000236943F400122261BFF34F8F2361A4F5B3
:10381000DE344FF4004323802025013DFDD14FF4D9
:10382000927325800A26A38048F25A03A383268434
:10383000238810209BB243F4806343F0010323806C
:1038400001F048FAA389082123F001031B041B0C93
:10385000A3810D222748FFF7E1FA09210D2225480F
:10386000FFF7DCFA1D4BDA6942F01C02DA619A6953
:1038700042F420529A611A6942F01C011961BFF3A7
:103880004F8F1A61DA6842F42051D960BFF34F8F2D
:103890002149DA606E228A854FF420720A8546F645
:1038A000680043F2333208834FF6FF74888337276A
:1038B0000A8401220A80A1F82C44A1F82854A1F816
:1038C0000874A1F80C244727A1F8002401F59631CB
:1038D0008C850F8520278F8020E000BF00100240DC
:1038E00000ED00E00020024000841D00440900209B
:1038F00000080140000C014000100140001401408C
:10390000001801400000014000040140FFFF0700D3
:103910000030014000440040000800400A80A1F54A
:1039200000618C850A85088388834FF401400D84EB
:10393000A1F844008120088040F2C114A1F58E3125
:10394000032008858C8580240C808F80596942F281
:10395000A0540143596152490C60524C8C60524C46
:10396000CC6042F2B654C1F82844504CC1F83044FF
:10397000996941F400719961D96841F40074DC607F
:10398000BFF34F8F4A4CD9604FF480736360494B4B
:103990002946A3600C2301930D2302930B2300906F
:1039A0000493039602230820FFF7A8F9424BE36033
:1039B00003F134532361414BA3600833A360A36830
:1039C0001B07FCD43E4A3A4B9A60A36813F00407E5
:1039D000FBD1FFF773F93B4BDA6942F00052DA6131
:1039E0001A6942F000511961BFF34F8F1A6141F219
:1039F0000702A3F5CE331A60334A4FF00063936099
:103A0000324B2020D360E02382F82230304BD02488
:103A10004FF48041D477402683F82E035960C021AB
:103A200083F825138025586083F826135E6083F899
:103A30002713B0215D6083F82313082159603021DA
:103A400083F806131E6083F807131D604FF400050A
:103A500083F817131D604FF4807583F828135D6099
:103A600083F81F034FF000401860012083F82013F3
:103A7000586083F83A134FF08061596042F2273161
:103A800043F8EC1C032182F8234043F8E87C43F818
:103A9000F01C4FF4C023536262B661B607B0F0BDAC
:103AA000080002404C240140D40800200874004063
:103AB0000024014002010E006DDBB60003010E0080
:103AC00007010E000010024000ED00E00003FA05BF
:103AD00000E100E068461C4A20F007018D4619B558
:103AE000138A9489A4B21C4004F002039BB23BB138
:103AF000938923F002031B041B0C9381FFF792FCB4
:103B000004F004039BB243B10F4A938923F00403EA
:103B10001B041B0C9381FFF7D3FA04F008039BB23C
:103B200043B1094A938923F008031B041B0C9381BA
:103B300001F0DEF804F01004A4B20CB100F004FCB3
:103B4000BDE819408546704700340140014B1868B4
:103B5000704700BF44090020084A0949938C888CAB
:103B6000928C9BB292B29A4280B204D047F6FE7118
:103B7000884298BF134640EA03407047000C00405B
:103B80000034014003480068006880F3088862B68A
:103B900000DF00BF08ED00E0064AC36A0146106876
:103BA000834288BF1360044A142000FB03200431C1
:103BB00001F07EBBD4030020D803002038B5084CA8
:103BC0000546E16F41F8040F04F1800001F07DFB30
:103BD000D4F894309D4238BFC4F8945038BD00BF2B
:103BE000D4030020F8B5234C234F0026D4F8983096
:103BF00043B3D4F89C301BB372B6D4F8B030013361
:103C0000C4F8B030D4F8A830DD68281D01F075FB89
:103C1000D4F8B430013BC4F8B430D4F89830013B48
:103C2000C4F89830D4F8B030013BC4F8B03003B9D0
:103C300062B6286BFFF7C6F92846FFF7C3F901E023
:103C4000C4F89830FFF782FFB042054607D3002042
:103C500000F0EAFD012000F0E7FD05F110066368C1
:103C6000012B04D97B6843F080537B60BEE730BFF3
:103C700000BFBBE7D403002000ED00E0174B10B5F8
:103C8000D3F8B820910703D5012283F8BC2010BDDA
:103C9000D20721D553F8042B142400E0013A04FB89
:103CA00002F0191818580028F8D04B6801F10800E4
:103CB0005B68834208BF5B684B600849DB680A6049
:103CC0001A6BCB671B68934203D91268044B9A4264
:103CD00002D0032001F026FA10BD00BFD40300205B
:103CE0002F46AA71044B19680868B0E8F00F80F3FA
:103CF00009884EF00D0E704750040020EFF3098044
:103D0000094B1A6820E9F00F10602DE9084072B6DF
:103D1000FFF7B4FF62B6BDE8084019680868B0E86C
:103D2000F00F80F3098870475004002070B51F4CD5
:103D3000D4F8B830012B37D172B6D4F8B030013393
:103D4000C4F8B030FFF702FFD4F89430054698422B
:103D50001DD32646D6F88020144B12B94FF0FF32FF
:103D600005E0D6F88C20D4686268954202D2C3F888
:103D700094200CE0201D01F0C0FAA36A1BB104F1ED
:103D8000180001F0BAFA2046FFF706FFE2E7074AFB
:103D9000D2F8B030013BC2F8B03003B962B6044B80
:103DA0005A6842F080525A6070BD00BFD4030020B0
:103DB00000ED00E0064BD3F8B830012B05D1054BE0
:103DC0005A6842F080525A60704730BF00BF704757
:103DD000D403002000ED00E02DE9F843494D1E46D4
:103DE000D5F8B4308146102B0F46904600F28580FE
:103DF0003820FFF7F7F8044600287ED0B800FFF718
:103E0000F1F818B92046FFF7DDF876E03E4B052EB5
:103E100028BF0526013F0360206300EB8707E662A9
:103E2000201D666301F041FA04F1180001F03DFA2B
:103E3000C6F10603A36127F007074FF080732461E2
:103E4000646247F8043C314B47F8089C47F80C3C47
:103E500047F8208C403F276072B6D5F8B030EF6F3E
:103E60000133C5F8B030D5F8B4300133C5F8B430FB
:103E7000DFB9D5F8B430EC67012B1ED104354FF013
:103E8000140808FB0750013701F004FA062FF8D197
:103E90001F4801F0FFF91F4801F0FCF91E4801F02E
:103EA000F9F91E4801F0F6F907E0D5F8B830DB075C
:103EB00003D4FB6AB34298BFEC67124D2046D5F895
:103EC000E8309E4288BFC5F8E860FFF765FED5F888
:103ED000B030013BC5F8B03003B962B6094BD3F836
:103EE000B820D0070AD5DB6FDB6AB34206D20C4B91
:103EF0005A6842F080525A6000E000242046BDE833
:103F0000F88300BFD40300202F46AA71993F000810
:103F1000540400209404002070040020A804002011
:103F200000ED00E070B572B6184CD4F8B030013333
:103F3000C4F8B03008B9E56F00E005462E1D3046E4
:103F400001F0DBF9AB6A1BB105F1180001F0D5F9FE
:103F50000F48314601F0ACF9D4F898300133C4F879
:103F60009830D4F8B030013BC4F8B03003B962B631
:103F7000064BD3F8B820D20707D5DB6F9D4204D19A
:103F8000044B5A6842F080525A6070BDD40300203E
:103F90007004002000ED00E00020FFF7C3BF000028
:103FA000F8B5044672B61C4ED6F8B0300133C6F8E8
:103FB000B03008B9F56F00E005462F1D384601F016
:103FC0009CF9AB6A1BB105F1180001F096F9134892
:103FD000394601F06DF9D6F8B030013BC6F8B03083
:103FE00003B962B6B4B90C4BD3F8B820D10705D5E4
:103FF0000B4B5A6842F080525A60F8BDD3F8D41087
:10400000D3F8B420914201D1DC67F8BDBDE8F84097
:10401000FFF734BEF8BD00BFD4030020A804002081
:1040200000ED00E038B5044672B61548D0F8B0305F
:104030000133C0F8B030C4B1D0F8B8309D0706D510
:10404000C03004F1180101F033F900250EE0C36F10
:10405000DD6AE36AAB4234BF00250125201D01F073
:104060004CF92046FFF798FD00E02546044AD2F8B7
:10407000B030013BC2F8B03003B962B6284638BD53
:10408000D4030020002208B50C4840211346FFF756
:10409000A3FE88B172B60A4B4FF0FF32C3F89420EA
:1040A00001210022C3F89820C3F8B810C3F8B0204B
:1040B000BDE80840FFF766BD08BD00BFE53B00084E
:1040C000D4030020034BD3F8B82042F00202C3F817
:1040D000B8207047D403002070B572B6224BD3F8D5
:1040E000B0200132C3F8B020D3F8B82022F0020289
:1040F000C3F8B820D3F8B420AAB900242AE0D6F82F
:10410000CC30DD6805F1180001F0F7F8281D01F04A
:10411000F4F82846FFF740FDF36FEA6ADB6A9A423B
:1041200028BF012401E000241E46D6F8C030002B31
:10413000E5D1FFF7FBFD24B90B4B93F8BC30002B06
:10414000DBD0094B002283F8BC20084B5A6842F0B0
:1041500080525A60044AD2F8B030013BC2F8B03005
:1041600003B962B6204670BDD403002000ED00E024
:1041700010B5044628B90C4B5A6842F080525A6078
:1041800010BDFFF79FFFFFF7E1FC084B0419D86F44
:10419000043001F0B2F82046FFF710FDFFF79CFF56
:1041A0000028E8D010BD00BF00ED00E0D4030020DF
:1041B00038B505460C46FFF785FF2B68E418FFF776
:1041C000C5FC84422C6007D9084BD86F043001F03D
:1041D00094F82046FFF7F2FCFFF77EFF20B9044B6E
:1041E0005A6842F080525A6038BD00BFD4030020A4
:1041F00000ED00E038B50D4C0D46E16F183101F0CF
:1042000064F8E06F043001F078F86B1C07D1E16FBF
:1042100004F1D4000431BDE8384001F049B8FFF79B
:1042200095FC4019BDE83840FFF7C8BCD403002016
:10423000C36870B5DC680F4D04F11806304601F014
:104240005CF8D5F8B8309A0705D505F1C0003146BD
:1042500001F02EF805E0201D01F04FF82046FFF791
:104260009BFCEB6FE06ADB6A984234BF00200120C0
:1042700070BD00BFD4030020014BD86F704700BF52
:10428000D403002038B50446E8B10F4DC26AEB6F85
:10429000D96A8A4217D2D96AC1F106018161291D02
:1042A000142000FB0212616991420AD1201D01F025
:1042B00024F8EB6F2046DB6AE362BDE83840FFF785
:1042C0006BBCDB6AE36238BDD403002010B5044642
:1042D00080B1C26A436B9A420CD0043001F00DF8F1
:1042E000636B2046E362C3F10603A361BDE810409F
:1042F000FFF752BC10BD000010B5104B0201044680
:104300000020D118D050C87901210130C0B2FEF789
:1043100005FC0B4A137803F0FD031370094B998CCD
:10432000803189B2A3F8401041F6EF611982998972
:1043300089B241F010019981547010BD48090020E4
:10434000C00400200034014070B51A4C667825780E
:10435000EB0726D5184B05F00201C9B203EB061690
:1043600021B1B079BDE87040FFF7C6BFF07945F0E4
:1043700002050130C0B2FEF7D1FBFFF7EDFB0F4B9A
:10438000F06025709A8CA2F5804292B2A3F840208A
:1043900041F6EF621A829A8992B242F010029A8133
:1043A00070BD064A938923F010031B041B0C9381F4
:1043B00070BD00BFC0040020480900200034014047
:1043C000684620F007018D462DE9F14F444B4FF42C
:1043D00080711A685960434B12F40072B3F800827E
:1043E000B3F80292B3F80872B3F80AC2B3F81052E5
:1043F00084B01944B3F8126208BF194601921FFA3B
:1044000088F8BFB2ADB2384A00911FFA89F91FFA95
:104410008CFCB6B229463846444600234C44A4B22C
:104420004FEA542A604402EB4A0A80B2BAF998B0C3
:104430004FEA502A02EB4A0ABAF998A0891989B2C0
:10444000D3444FEA512A02EB4A0ABAF998A0DA4457
:104450000AF1040A4FEAEA0ADDF800B00AF2FF7A2C
:104460002BF803A00233B3F5807FD7D11D4B08EBA7
:10447000C91807EBCC1705EBC615019A1FFA88F887
:10448000BFB2ADB2A3F80082A3F80872A3F810522D
:104490000AB3B3F8042204A9013A92B2A3F80422A1
:1044A000B3F80C22D3F81802013A92B2A3F80C2206
:1044B000B3F81422013A92B2A3F81422002201F8B0
:1044C000012DFEF7E1FE9DF80F3023B1074B5A682E
:1044D00042F080525A6004B0BDE8F14F8546704703
:1044E00000040240C4040020B458000800ED00E0BD
:1044F000164A242303FB012310F1560F5B8C15D0C1
:10450000552802D1012B09D112E0162802D1022B25
:1045100004D10FE0022801D1032B0DD0042B0DD1C3
:10452000242303FB012282F8210007E0012306E097
:10453000022304E0032302E0042300E00023034AF3
:10454000242000FB01214B84704700BFE0060020BF
:1045500070B54D1E022D064622D8154B882404FB4B
:10456000053401E0FFF726FC62782378013202F07F
:104570003F029A42F6D06378F1B2E218013303F0B9
:104580003F03917063700DB90A4B03E0012D0CBF1E
:10459000094B0A4B9A8992B242F080029A8105E057
:1045A00008463146BDE8704000F054BB304670BD4F
:1045B0002807002000440040004800400038014027
:1045C000684620F007018D4601B5002382B08DF8C2
:1045D0000730284B1A8802F0200292B2EAB198887C
:1045E000254B80B293F89B1193F89A21013101F089
:1045F0003F0191420AD093F89B21C0B29918013231
:1046000002F03F0281F89C0183F89B211A4B0DF1C7
:104610000701D3F8DC01FEF737FE164A138803F0D2
:1046200080039BB2CBB1144B93F8580193F8591106
:10463000884206D1938923F080031B041B0C9381CD
:104640000BE093F85811581890F85A01013101F015
:104650003F0183F8581143B293809DF8073023B18E
:10466000064B5A6842F080525A6002B0BDE80140E1
:104670008546704700380140E006002000ED00E06C
:10468000684620F007018D4601B52F4B82B01A888D
:10469000002102F0200292B28DF8071032B3988800
:1046A0002A4BC0B293F8202002F00402D2B21AB111
:1046B00040B2FFF71DFF19E093F88B1093F88A20A2
:1046C000013101F03F01914209D093F88B209918F4
:1046D000013202F03F0281F88C0083F88B201B4BE3
:1046E0000DF10701D3F8CC00FEF7CEFD164A138872
:1046F00003F080039BB2CBB1144B93F8480093F8BE
:104700004910884206D1938923F080031B041B0CB7
:1047100093810BE093F84810581890F84A00013143
:1047200001F03F0183F8481043B293809DF80730B1
:1047300023B1074B5A6842F080525A6002B0BDE87C
:1047400001408546704700BF00440040E00600205D
:1047500000ED00E0684620F007018D4601B500231A
:1047600082B08DF807302D4B1A8802F0200292B2E9
:104770003AB398882A4BC0B293F8442002F004025E
:10478000D2B222B140B20121FFF7B2FE19E093F894
:10479000131193F81221013101F03F01914209D028
:1047A00093F813219918013202F03F0281F81401A5
:1047B00083F813211A4B0DF10701D3F85401FEF7CA
:1047C00063FD164A138803F080039BB2CBB1144BF0
:1047D00093F8D00093F8D110884206D1938923F042
:1047E00080031B041B0C93810BE093F8D010581826
:1047F00090F8D200013101F03F0183F8D01043B2AC
:1048000093809DF8073023B1064B5A6842F08052DE
:104810005A6002B0BDE8014085467047004800403C
:10482000E006002000ED00E0284B24222DE9F041B5
:1048300002FB003393F8206006F00402D2B2002A93
:1048400041D0441CF2071D4605D526F00102103563
:1048500083F8202003E046F0010385F8203021464C
:10486000AA20FFF775FE21465520FFF771FE21466D
:104870001E20FFF76DFE06F0030621461220FFF70B
:1048800067FE30462146FFF763FE102795F800804B
:10489000B8F1000F08D04FFA88F021464644FFF7E0
:1048A00057FEF6B2013505E020202146FFF750FE05
:1048B0002036F6B2013FE9D1704240B22146BDE850
:1048C000F041FFF745BEBDE8F08100BFE0060020E3
:1048D00038B5134C002584F89A5184F89B5184F81C
:1048E000585184F89B51FEF7C4FC84F88A50C4F8F0
:1048F000DC0184F88B5084F8485084F88B50FEF724
:10490000B8FC84F81251C4F8CC0084F8135184F830
:10491000D05084F81351FEF7ACFCC4F8540138BDF4
:10492000E0060020084B684620F00701D3F8A830C5
:104930008D4601B50BB10B209847044B01225A61FB
:10494000BDE8014085467047480900200004014049
:10495000084B684620F00701D3F8B8308D4601B502
:104960000BB10C209847044B02225A61BDE801406C
:10497000854670474809002000040140684620F041
:104980000701174B8D4631B55D6915F0400405D020
:10499000144B9B6A0BB10320984740242B0606D585
:1049A000104B9B6B0BB10420984744F08004E80542
:1049B00006D50C4B9B6E0BB10720984744F48074CE
:1049C000A90506D5074B9B680BB10120984744F415
:1049D0000074034B5C61BDE831408546704700BF01
:1049E0000004014048090020684620F007011C4BE4
:1049F0008D4631B55D6915F4806406D0194B9B6F07
:104A00000BB1082098474FF480642B0506D5154B51
:104A10009B690BB10220984744F40064E80407D571
:104A2000104BD3F888300BB10920984744F48054D8
:104A3000A90406D50B4B9B6C0BB10520984744F499
:104A400000546A0406D5074B9B6D0BB106209847AE
:104A500044F48044024B5C61BDE8314085467047B8
:104A60000004014048090020074B022200F5803075
:104A70001A6100F14002D2025A6142221A61DA68D8
:104A8000D207FCD4704700BF0020024000F5803000
:104A9000054B403010B5C00201241C614252DA6857
:104AA000D107FCD410BD00BF002002402DE9F74F14
:104AB000471F032F63D8344A0C2303FB0723B3F8A3
:104AC0008A1001F0020080B2002851D0D3F8806033
:104AD000B3F8885006F11000C10AD3F88480CC02E4
:104AE0002A4B4D192A49C6EB0806596001F1883155
:104AF000596026F00106041B02F1B00992464FF0FE
:104B0000030B40F2FF7324E0ACB97F2D0DD91E4B8F
:104B10000C2202FB0737C6EB08061C4B26F00106E9
:104B20008022C7F880601A6129E01AF80520002A5F
:104B3000EDD10AF805B0214639F8022B2846019339
:104B4000FFF7A4FF019B02349C4201D901350024E8
:104B5000023E002ED8D10D4B80221A610A4B0C2246
:104B600002FB073728F00103C7F88030304608E021
:104B700011F0010F0CBF4FF0FF30002001E04FF0AB
:104B8000FF30BDE8FE8F00BF080A00200020024071
:104B9000230167452DE9F8432B4D804600244DF64F
:104BA000DE6904F580334033DB021A885F684A45CA
:104BB00030D1B7F5802F5A8807D24FF6FF739A424B
:104BC00004D101232B55032611E00127B8F1000F72
:104BD00002D108262E550AE01C4B1D4A00262E55F0
:104BE0005A6002F188325A602046FFF73DFF0F37C6
:104BF00004EBD72707E0013416B92046FFF734FF4E
:104C0000802C665501D0BC42F5D16EB90F4B802285
:104C10001A6109E04FF6FF739A4203D17A1C01D161
:104C2000002300E008232B5501347F2CB9D9064B13
:104C30000022A3F88A20A3F89620A3F8A220A3F8C4
:104C4000AE20BDE8F88300BF080A00200020024023
:104C5000230167452DE9F041471F032F0D4602D977
:104C60004FF0FF3523E0134B0C2404FB0734B4F85A
:104C70008A20984602F0020292B2002AF0D0D4F8BC
:104C80008030D4F8846003F50062964205D3FFF7C4
:104C90000DFF0028E4D1D4F88030F31A434483F8A0
:104CA000B0500C2303FB07870136C7F88460284601
:104CB000BDE8F081080A002010B5FEF7DAFA0021FD
:104CC0000446FEF7E6FA024B00229C601A7010BD03
:104CD000B8120020054A00F0FE00138923F0FE03FD
:104CE0001B041B0C03431381704700BF005400409A
:104CF00007B5002302A901F8013D064B9868FEF7AD
:104D0000C3FA9DF8073023B1034B5A6842F0805232
:104D10005A600EBDB812002000ED00E068464B4B13
:104D200020F007018D46998A11B589B2C8071A8B00
:104D300003D5474A52781A8284E001F0020292B207
:104D4000D2B1434A50885178C0B2C9070AD45168D9
:104D5000013811F8014BC0B21C825160508000280C
:104D600070D13AE001286DD11A8892B222F4C06263
:104D700042F400721A8058E001F0800292B2002AD8
:104D800032D0334A01F00401508889B280B2B9B1FF
:104D9000117801F00400C0B228B121F0060141F001
:104DA0000201117004E01A8892B242F400721A8073
:104DB000264A938823F4C0631B041B0C938034E0C1
:104DC00010F0FF003ED0516811F8014B1C82516079
:104DD000411EC9B25180002934D19A8822F48062E0
:104DE0001204120C9A802DE001F0400189B249B3FF
:104DF000174A518850681C8A013901F0FF01E4B25A
:104E000000F8014B01295060518007D11A8892B2F5
:104E100022F4C06242F400721A8013E091B99A88B9
:104E200022F4C0621204120C9A800A4B9A8C04324B
:104E300092B29A8741F6F7621A829A8992B242F048
:104E400008029A81BDE81140854670470054004031
:104E5000B812002000340140684620F007018D465A
:104E600001B51C4B0022998A82B089B28DF80720C7
:104E700021F4706292B29A821A8811F4306F92B261
:104E800007D042F4004119802023013BFDD1114B92
:104E900001E042F400721A800F4A0E49137843F081
:104EA000010313708B8823F4C0631B041B0C8B80DD
:104EB00090680DF10701FEF7E7F99DF8073023B17F
:104EC000064B5A6842F080525A6002B0BDE8014079
:104ED0008546704700540040B812002000ED00E005
:104EE00038B50E4C2568FFF7EDF8EA0704D5606881
:104EF000FFF718F800236360AB0704D5A068FFF73D
:104F000011F80023A360054B25F003051D60FEF793
:104F10007DF9BDE83840FFF7DFB800BFC0080020CA
:104F200070B5134D2C6814F001061FD1FFF7CAF8B5
:104F3000A10707D5A868FEF7F5FFAE60FEF766F992
:104F400024F0020402230B484FF400710022FEF704
:104F500043FF074B586010B9042000F0E3F844F019
:104F600001041C60BDE87040FFF7B6B870BD00BF1B
:104F7000C00800208950000810B5094C00220948DB
:104F80004FF4007102232260FEF726FFE06010B9A3
:104F9000042000F0C7F8236843F00403236010BD29
:104FA000C0080020C150000870B5134D2C6814F0E3
:104FB00002061FD1FFF786F8E00707D56868FEF7FD
:104FC000B1FF6E60FEF722F924F0010402230B48C2
:104FD0004FF400710022FEF7FFFE074B986010B9F6
:104FE000042000F09FF844F002041C60BDE870400B
:104FF000FFF772B870BD00BFC00800204D50000818
:1050000010B50D4C23889BB203F0080292B26AB12E
:1050100003F0020292B212B9FFF762FF08E003F058
:1050200004039BB213B1FFF77BFF01E0FFF7BCFF66
:105030000020FEF7B5FFE5E740090020024B1869A4
:1050400008B1FEF7EFBF7047C008002010B5FDF7AC
:10505000FDFB72B6094C236801332360FEF7D6F8D6
:10506000074B1A6822F002021A6000229A60236835
:10507000013B236003B962B610BD00BF8404002069
:10508000C00800207047000010B5FFF7FBFF72B6A4
:10509000094C236801332360FEF7B8F8074B1A6800
:1050A00022F001021A6000225A602368013B23604B
:1050B00003B962B610BD00BF84040020C008002000
:1050C00010B5FEF743FD00F5C064FDF7CDFB72B6E9
:1050D000114B1A6801321A60104A116821F004015C
:1050E00011600021D1601A68013A1A6002B962B6F3
:1050F000FEF72CFDA04202D2201AFFF739F8052353
:10510000074840210022FEF767FE044B186110B9E2
:10511000042000F007F810BD84040020C00800201F
:105120000150000872B61C4942F20C038B811B4AE5
:105130000C4607E00D8805F08005ADB2002DF9D0D2
:105140005BB2A38012F8013F002BF3D1042811D8E1
:10515000134B114A03EB8000114607E0148804F05A
:105160008004A4B2002CF9D05BB28B8010F8013B14
:10517000002BF3D1084A138803F080039BB2002B65
:10518000F9D0084A084BD16801F4E0610B43D360C1
:10519000BFF34F8FFEE700BF00380140665B000899
:1051A0004C5A000800ED00E00400FA05704768461C
:1051B00020F007018D4608B50120FFF7B3FF6846D0
:1051C00020F007018D4608B50020FFF7ABFF6846C9
:1051D00020F007018D4608B50220FFF7A3FF00006D
:1051E0000B4B68461A6820F007018D46013201B565
:1051F0001A601A681423B2FBF3F103FB11230BB9F5
:10520000FEF7C0F9FEF792FDBDE801408546704704
:105210004409002010B50446FEF798FC041901E08B
:1052200030BF00BFFEF792FCA042F9D310BD30B5ED
:10523000002302E0CC58C4500433D41A032CF9D80C
:1052400002F0030422F0030289180023821802E00E
:10525000CD5CD5540133A342FAD130BD38B50C4CE6
:10526000656AFEF7C5F9FEF7F9F8FDF7FAFAC5F336
:10527000C060FFF78FFC636A43F080736362FEF7E0
:1052800055F9FFF779FEFEF7FDFE0420FFF74AFF10
:105290000010024000F1080343604FF0FF32C3608A
:1052A000036100238260036070470023036170473D
:1052B00043685A688B604A605A6859609160036815
:1052C000416001330861036070470A6810B5531CE0
:1052D00001D1036907E000F1080300E05B685C6846
:1052E00024689442FAD95A68086191604A6059600A
:1052F0008B6003680133036010BD436882689A6065
:105300008268536003695968814208BF5A6000226D
:1053100002611A68013A1A60704738B504460D46B2
:1053200003E040B22946FFF713F914F8010B0028F7
:10533000F7D138BD0321FFF7F0BF026C38B5044642
:1053400052B1C5684368AD189D4228BF056808463C
:105350002946FFF76CFFE56038BD70B5056C044663
:1053600035B90568F5B94068FEF7B0FF656019E02A
:105370005AB986682A463046FFF759FF636875199F
:105380009D4228BF2568A5600CE0C6682A463046C5
:10539000FFF74DFF6D422368701998423CBF60686B
:1053A0004019E060A36B0133A36370BD2DE9F041A8
:1053B0000E46074608B9002428E04420FDF712FEF7
:1053C00004460028F7D007FB06F808F10100FDF7B6
:1053D00009FE0546B0B100EB0803C6EB08086360A0
:1053E00000EB080500232060A060A36304F1100017
:1053F000E560E7632664FFF74DFF04F12400FFF743
:1054000049FF03E02046FDF7DDFD2C462046BDE8C0
:10541000F08100002DE9F84F0446894616469A4669
:10542000FEF794FB2B4D2C4F804604F1100B72B607
:105430002B6801332B60A26BE36B9A4218D0204695
:1054400049465246FFF789FF636A4BB104F12400D5
:10545000FEF7EEFE20B1204B5A6842F080525A60AF
:105460001C4A1368013B1360002B2CD162B62AE062
:105470000EB32B68013B2B6003B962B672B62B6882
:1054800001332B60FEF762FBC8EB0000B04212D282
:10549000A26BE36B9A4207D158463146FEF7AAFE4B
:1054A0007B6843F080537B602B68013B2B60002BB3
:1054B000BDD162B6BBE7074B18680138186028B940
:1054C00062B6BDE8F88F0120BDE8F88F0020BDE886
:1054D000F88F00BF8404002000ED00E02DE9F84FB4
:1054E0000446894616469A46FEF730FB344D354F42
:1054F000804604F1240B72B62B6801332B60A36B3A
:105500004BB320464946E568FFF717FFBAF1000F95
:105510000CD1A36B013BA363236813B9FEF7ACFE68
:10552000606023697BB104F1100004E0636AE56008
:105530004BB104F12400FEF77BFE20B1214B5A68E9
:1055400042F080525A601E4A1368013B1360002BE0
:105550002FD162B62DE026B32B68013B2B6003B937
:1055600062B672B62B6801332B60FEF7EFFAC8EB18
:105570000000B04215D2A36B63B9236813B9606809
:10558000FEF780FE58463146FEF734FE7B6843F056
:1055900080537B602B68013B2B60002BABD162B644
:1055A000A9E7074B18680138186028B962B6BDE84A
:1055B000F88F0120BDE8F88F0020BDE8F88F00BF0C
:1055C0008404002000ED00E0F8B50446174672B6EA
:1055D0000F4DC66B2A6801322A60826BB2420FD02F
:1055E0001A46FFF7BAFE636A0BB9012009E004F11D
:1055F0002400FEF71DFE0028F7D00120387000E0DF
:1056000000202B68013B2B6003B962B6F8BD00BFD8
:105610008404002000000000C1F30A522DE9F84381
:10562000A2F2FF35132D0B4684460C46064607466C
:1056300034DC002D20DB364A884642FA05F901EABF
:105640000902024314D030A3D3E90023FAF72AFE5B
:1056500000220023FBF76CFA40B1002C03DD4FF46D
:1056600080132B419844002628EA09042346B446B7
:1056700060461946BDE8F88323A3D3E90023FAF76F
:1056800011FE00220023FBF753FA0028EED0002C75
:1056900034DB264330D000261E4CE7E7332D08DDEF
:1056A000B5F5806FE4D10246FAF7FCFD84460B465F
:1056B000DEE74FF0FF38A2F2134228FA02F810EAB0
:1056C000080FD5D010A3D3E90023FAF7EBFD002291
:1056D0000023FBF72DFA0028C8D0002C09DD142D7B
:1056E00006D00123C5F13405AB401F44BE4200D9AA
:1056F000013427EA0806B9E73446B7E700264FF039
:105700000044B3E7AFF300809C7500883CE4377E2B
:10571000FFFF0F000000F03FC1F30A522DE9F843EC
:10572000A2F2FF35132D0B4684460C46064607466B
:1057300032DC002D20DB384A884642FA05F901EABE
:105740000902024314D032A3D3E90023FAF7AAFDD9
:1057500000220023FBF7ECF940B1002C03DA4FF4F0
:1057600080132B419844002628EA09042346B446B6
:1057700060461946BDE8F88325A3D3E90023FAF76C
:1057800091FD00220023FBF7D3F90028EED0002C76
:1057900026DB00263446E9E7332D08DDB5F5806FBA
:1057A000E6D10246FAF77EFD84460B46E0E74FF06D
:1057B000FF38A2F2134228FA02F810EA080FD7D0F5
:1057C00013A3D3E90023FAF76DFD00220023FBF7B2
:1057D000AFF90028CAD0002C0EDB27EA0806C5E77F
:1057E00024F0004434430D4B002C4FF000060CBF56
:1057F0004FF000441C46B9E7142D06D00123C5F133
:105800003405AB401F44BE42E7D90134E5E700BF91
:105810009C7500883CE4377EFFFF0F000000F0BF5E
:1058200070030020000801400018014000180140EA
:105830000010014000100140001801400018014014
:1058400000180140001801400018014000180140F4
:10585000001401400014014000080140000801400C
:105860000008014000080140001001400010014004
:1058700000100140001001400014014000140140DC
:105880000010014000100140000C0140000C0140DC
:1058900004090B06070D0E080A0C0700010001029F
:1058A000030203000105060A0B0809000102030CAC
:1058B0000D0A0B000A0C0103050608000000720027
:1058C0007900800087008F009800A100AA00B40032
:1058D000BF00CB00D700E300F100FF000E011E0166
:1058E0002F014101540169017E019501AD01C601FD
:1058F000E101FE011C023C025E028202A902D10209
:10590000FC0229035A038D03C303FC033804790402
:10591000BD0405055105A205F8055306B306190790
:105920008507F7077008F1087909090AA20A440BEC
:10593000EF0BA50C650D310E090FEE0FE010E11114
:10594000F212121443158716DE1749190000CB0016
:1059500095015E022503EB03AE046E052B06E406FB
:1059600098074808F3089809370AD00A610BEC0B2E
:105970006F0CEB0C5E0DC90D2C0E850ED60E1D0F97
:105980005A0F8E0FB90FD90FF00FFC0FFF0FF70F43
:10599000E60FCA0FA50F760F3D0FFA0EAF0E5A0E87
:1059A000FC0D950D260DAE0C2F0CA80B190B840ABF
:1059B000E80946099E08F1073F078806CD050E0550
:1059C0004D048803C202F901300165009BFFD0FE3F
:1059D00007FE3EFD78FCB3FBF2FA33FA78F9C1F822
:1059E0000FF862F7BAF618F67CF5E7F458F4D1F33D
:1059F00052F3DAF26BF204F2A6F151F106F1C3F0C0
:105A00008AF05BF036F01AF009F001F004F010F0C3
:105A100027F047F072F0A6F0E3F02AF17BF1D4F121
:105A200037F2A2F215F391F314F49FF430F5C9F5AF
:105A300068F60DF7B8F768F81CF9D5F992FA52FB39
:105A400015FCDBFCA2FD6BFE35FF00009C5B000833
:105A50009C5B0008AF5B0008C35B0008D25B0008DA
:105A60000D0A506F77657265642062792050524F3D
:105A70005320326231300D0A5468697320697320F3
:105A80006120424554412076657273696F6E206FC4
:105A9000662050524F5320616E64206D61792068FA
:105AA000617665206973737565732E0D0A0D0A5052
:105AB000757264756520526F626F74696373204FED
:105AC0005320284329323031312D323031342050A7
:105AD00075726475652041434D20534947424F54C8
